:03000000021CE3FC
:0C1CE300787FE4F6D8FD758157021D2AB9
:08000300121F2312205A80FB9A
:0B21BE00E4F58A758CDCD28CD2A922DB
:03000B000221D8F7
:0321D800D20E32F2
:101F6800C20E0544E544700205430546E546700285
:101F78000545E53B453A6008E53B153B7002153AD7
:101F8800E54245416008E5421542700215410511D8
:101F9800C3E511940A748094804005E4F511D20BCE
:011FA8002216
:101D6F00C20B300108054AE54A70020549E557459F
:101D7F00566008E557155770021556D2CD0512C398
:101D8F00E5129405748094804008E4F512A20CB318
:101D9F00920C0510C3E510940A74809480402112B0
:101DAF002192E4F510A20DB3920DE5487012FF7E5B
:101DBF0002122130EF6463700475483822754801B0
:011DCF0022F1
:10211200E4F591F59275B04375B14075B24090FE09
:0E21220013E054BFF075C810E4F5C9F5CA22E9
:0721D10075C10443C1202287
:101F2300C2AF1221121221D11221BE120026122198
:101F33007B1220A9753A03753BE8E4F540F54B7530
:101F43004C64F539753001753C01F53DF554F55197
:101F5300F52FF550F54FF54EF54D1220CC122024F8
:051F6300D2CDD2AF2237
:01004100229C
:10205A0043C110120041300E03121F68300B0312E5
:10206A001D6FE53B453A700312103E1207E0E54248
:0A207A0045417003121203020046F4
:1020A900E4FFEFC3945A74809480500F746C2FF539
:1020B90082E43403F583E4F00F80E7E4F51BF5438C
:0220C900F544DC
:0120CB0022F2
:10103E00E540121FC210890010950210A10410ADD8
:10104E000610BB0710C90810D70C10E60E10F510CD
:10105E00114012110414116415114C171158191165
:10106E00721A117E1C11941E11A02011AC2211D5E2
:10107E002411E12611ED28000012021220A97F3062
:10108E0012001B754001221220A97F3012001B7521
:10109E004003221220A97F4712001B754005221221
:1010AE0020A97F7512001BD209754009221220A9B2
:1010BE007F3012001BD20975400A221220A97F75BB
:1010CE0012001BD20975400B221220A97F6212005A
:1010DE001B75476275400D221220A97F5312001B0B
:1010EE0075475375400F221220A97F7012001B7591
:1010FE00477075401122E548642E700B1220A9200E
:10110E000603021202802EE548642F7018E547246C
:10111E008B6008242E70087540042275400722E467
:10112E00F53FD20222E54864306003021202754098
:10113E001A221220A97F3312001B7540132212208F
:10114E00A97F3412001B754018221220A97F351278
:10115E00001B75402A221220A9C202AF4712001BA3
:10116E00754016221220A97F5712001B75401B22B4
:10117E001220A97F3012001B7F3212001B7F331208
:10118E00001B75401D221220A97F4D12001B7540B9
:10119E001F221220A97F6712001B754021221220E8
:1011AE00A9E4F514C3E514942D748094805014743E
:1011BE003F2514F582E43403F583E0FF12001B058E
:1011CE001480E1754023221220A97F6B12001B753B
:1011DE004025221220A97F5712001B75402722128C
:1011EE0020A97F3012001B7F3012001B7F301200AF
:0411FE001B754029F4
:0112020022C9
:1007E000E540121FC2082801086A0308A7050ABDD0
:1007F000090AD70A0B1B0B08EE0D09420F098211DB
:1008000009B2130A7F1609FE180B351B0B7A1D0B54
:10081000901F0BCB210C0C230C5A250C6D270CB40C
:10082000290A382A00000CBCC3E5449405E543942A
:10083000004027AF1BEF3395E0FEC3EF9401EE6459
:10084000809480401590036CE0B43106754002023C
:100850000B03E4F540F53A020CA1C3E5449464E5CA
:100860004394005003020CBC8039C3E5449405E571
:100870004394004020AF1BEF3395E0FEC3EF94019B
:10088000EE64809480400E90036CE064316003025B
:100890000CBC0209FBC3E5449464E5439400500397
:1008A000020CBCE4F54022C3E5449405E543940002
:1008B000402CAF1BEF3395E0FEC3EF9401EE648054
:1008C0009480401A90036CE0FFB4310475400E220E
:1008D00075400C753A03753BE88F3FD20022C3E5A3
:1008E0004494F4E54394015003020CBC8050C3E5EA
:1008F000449405E54394004037AF1BEF3395E0FE89
:10090000C3EF9401EE64809480402590036CE0FF77
:10091000B4340675400E020C3FEFB4320B75400C38
:10092000753A00753BC880457540148F3FD202224E
:10093000C3E54494C8E54394005003020CBC7540E1
:100940000C22C3E5449405E54394004025AF1BEF1A
:100950003395E0FEC3EF9401EE64809480401390E1
:10096000036CE064316003020CBC754010F53FD2AB
:100970000022C3E54494DCE54394055003020CBC1B
:100980008079C3E5449405E54394004015AF1BEF1F
:100990003395E0FEC3EF944FEE64809480400302F1
:1009A0000CB7C3E54494DCE54394055003020CBC4A
:1009B0008049C3E5449405E54394004030AF1BEF04
:1009C0003395E0FEC3EF9401EE64809480401E9066
:1009D000036CE0B4310475401722C3E5449464E528
:1009E0004394005003020CBCD208020AA4C3E5449D
:1009F0009464E54394005003020CBC020AA4C3E5CE
:100A0000449405E5439400401DAF1BEF3395E0FE91
:100A1000C3EF941FEE64809480400B7F017E001230
:100A20001E8575401922C3E5449464E54394005043
:100A300003020CBCD209806CC3E5449405E54394E1
:100A400000402AAF1BEF3395E0FEC3EF9403EE6442
:100A50008094804018754014E54C24F0F53BE54B3C
:100A600034FFF53AE4FFFE121E85D20722C3E544A7
:100A70009464E54394005003020CBCD2098025C362
:100A8000E5449405E5439400401EAF1BEF3395E029
:100A9000FEC3EF9401EE64809480400CD202753A5C
:100AA00000753B0A75401422C3E54494ACE54394B9
:100AB0000D5003020CBC75401475482E22C3E5444A
:100AC0009405E54394005003020CBC753A00753B55
:100AD00064754007D20222C3E5449405E5439400BF
:100AE0004027AF1BEF3395E0FEC3EF9401EE648027
:100AF0009480401590036CE0B43105754008800384
:100B0000754007753A00020CA1C3E5449464E543BF
:100B100094005003020CBC75400722C3E5449405C1
:100B2000E54394005003020CBC753A00753B64E445
:100B3000F540D20222C3E5449405E54394004028E1
:100B4000AF1BEF3395E0FEC3EF9401EE6480948019
:100B5000401690036CE0B4310675401C020C94758D
:100B6000401A753A00020CA1C3E5449464E543942D
:100B7000005003020CBC75401A22C3E5449405E5FD
:100B80004394005003020CBC753A00753B648037F7
:100B9000C3E5449405E5439400401EAF1BEF339535
:100BA000E0FEC3EF9457EE64809480400C121C4E1C
:100BB000753A00753B64020C56C3E5449464E54302
:100BC00094005003020CBC75401E22C3E5449405FA
:100BD000E54394004026AF1BEF3395E0FEC3EF944E
:100BE00001EE64809480401490036CE0B43104758D
:100BF000402222754020753A00020CA1C3E54494BE
:100C000064E54394005003020CBC804AC3E544945D
:100C10000AE54394004034AF1BEF3395E0FEC3EF89
:100C20009401EE64809480402290036CE0FFB43223
:100C300007754026753F0122EFB43307754026E45F
:100C4000F53F22754020753A008056C3E544946410
:100C5000E5439400406675402022C3E5449405E5D1
:100C60004394004057753A00753B0A8043C3E544FE
:100C70009405E5439400402DAF1BEF3395E0FEC390
:100C8000EF9401EE64809480401B90036CE0B431DB
:100C90000A754028753A00753B0A22754026753A58
:100CA00000753B6422C3E5449464E5439400400C22
:0D0CB00075402622754831754014D202228D
:101E8500EF64014E7026FDEDC3941F74809480505D
:101E950042746C2DF582E43403F583E0FF74F72D6D
:101EA500F582E43402F583EFF00D80DB7D01EDC3AF
:101EB500940374809480501B746C2DF582E4340374
:101EC500F583E0FF74152DF582E43403F583EFF017
:031ED5000D80DBA2
:011ED80022E7
:101C4E0090033F7431F0A3F0A314F0A3F07F04EFE0
:101C5E00C3942874809480501DEF25E0246DF58286
:101C6E00E43403F583E0FE743F2FF582E43403F58C
:101C7E0083EEF00F80D99003677430F0A3F0A3F0D9
:101C8E00A3F0A3740DF07F10EFC3941674809480AC
:101C9E00501B74BA2FF582E43403F583E0FE743FD3
:101CAE002FF582E43403F583EEF00F80DB7F1CEF1B
:101CBE00C3942874809480501B74B42FF582E4343E
:101CCE0003F583E0FE743F2FF582E43403F583EED3
:041CDE00F00F80DBA8
:011CE20022DF
:10219200E5502401F550E4354FF54FE4354EF54E48
:0621A200E4354DF54D226D
:03002300021FE8D1
:101FE800C0E0C083C082C0D075D008309904C299BF
:101FF800C20F30981EC298AF1B051BEF3395E0FE49
:10200800746C2FF58274033EF583E599F0754300EF
:0C201800754400D0D0D082D083D0E032DC
:10002600759850758BD0758DFF438E40538EFED2DA
:0B0036008ED2ACE4F51CF51BC20F22BB
:08001B00200FFDD20F8F992286
:03004300021ED9C1
:101ED900C0E0C083C082C0D075D000C006C007E58D
:101EE9009A30E105539AFDC210E59A30E01F539AE2
:101EF900FEAF1D051DEF3395E0FE74C62FF5827404
:101F0900033EF583E59BF0754500754600D007D083
:0A1F190006D0D0D082D083D0E03291
:10217B00759A1075D7E875D6FF438E14E4F51EF5E6
:07218B001DC21043AF012249
:0821C9002010FDD2108F9B22B3
:102084008B148A158916AB14AA15A916121FA960F8
:10209400130516E5167002051514F9121FA9FF128F
:0520A40021C980E222C9
:100CBD004402F32B2B2B004200E161004202316113
:100CCD00004800372B6F6B0D0A0D0A004900F841E3
:100CDD00542B454E544D0D0051023341542B454E6E
:100CED00544D0A0D2B6F6B0D0A0D0A004A009661CB
:100CFD00742B77736D61630D005F021241542B5796
:100D0D00534D41430A0D2B6F6B3D413541344133FA
:100D1D004132413141300D0A0D0A005001CB617451
:100D2D002B6E726567656E3D412C6F6E0D0058021E
:100D3D008041542B4E524547454E3D412C6F6E0A16
:100D4D000D2B6F6B0D0A0D0A005801FA61742B6E95
:100D5D0072656764743D412C434C254D41434352AC
:100D6D0045470D005A02B341542B6E72656764748A
:100D7D003D412C254D41430A0D2B6F6B0D0A0D0A7C
:100D8D00004E02E561742B776D6F64653D73746180
:100D9D000D005600CB41542B574D4F44453D7374B8
:100DAD00610A0D2B6F6B0D0A0D0A004A008C6174E0
:100DBD002B776D6F64650D0055012541542B776DB3
:100DCD006F64650A0D2B6F6B3D41500D0A0D0A00C6
:100DDD004D014661742B776D6F64653D61700D003B
:100DED0055026B41542B574D4F44453D61700A0DD3
:100DFD002B6F6B0D0A0D0A006031004B61742B6E69
:100E0D006574703D7463702C636C69656E742C39F8
:100E1D003939392C7777772E6865616C746873650D
:100E2D006E736F722E636F6D2E636E0D00603901E0
:100E3D009261742B6E6574703D7463702C636C6974
:100E4D00656E742C393939392C7777772E68656151
:100E5D006C746873656E736F722E636F6D2E636E37
:100E6D000A0D2B6F6B0D0A0D0A004901DB61742B06
:100E7D0077736C6B0D005B029841542B57534C4BA1
:100E8D000A0D2B6F6B3D53534944284D4143290D9A
:100E9D000A0D0A004E001061742B7463706469733F
:100EAD003D6F6E0D0056010F41542B544350444974
:100EBD00533D6F6E0A0D2B6F6B0D0A0D0A004B0221
:100ECD00CD61742B7463706469730D005600A0417D
:100EDD00542B5443504449530A0D2B6F6B3D6F6E89
:100EED000D0A0D0A004A000061742B7463706C6B5F
:100EFD000D005500E341542B5443504C4B0A0D2B20
:100F0D006F6B3D6F6E0D0A0D0A0046000A61742B62
:100F1D007A0D004E010141542B5A0A0D2B6F6B0DAA
:100F2D000A0D0A004C002B41542B544350544F3D95
:100F3D00300D0054016941542B544350544F3D30F2
:100F4D000A0D2B6F6B0D0A0D0A004D02D841542B63
:100F5D00434D4450573D47540D005500B641542B59
:100F6D00434D4450573D47540A0D2B6F6B0D0A0DE1
:100F7D000A004C013A475441542B57534D41430DF0
:100F8D00005F024C41542B57534D41430A0D2B6FBB
:100F9D006B3D4135413441334132413141300D0AD0
:100FAD000D0A004C003F475441542B5443504C4BB9
:100FBD000D0055017D41542B5443504C4B0A0D2BC4
:100FCD006F6B3D6F6E0D0A0D0A0050007C4754414A
:100FDD00542B5443504449533D6F6E0D005601E45C
:100FED0041542B5443504449533D6F6E0A0D2B6FA2
:100FFD006B0D0A0D0A004D001E475441542B5443EE
:10100D00504449530D0056015341542B5443504401
:10101D0049530A0D2B6F6B3D6F6E0D0A0D0A00487B
:10102D000244312E302E305F3500011A00011800B8
:1020CC007532B17533B27534B37535B47536B575C3
:1020DC0037B61220EFE4F548F552754102754258B7
:0320EC00D20622F7
:10181B00E4F514F5157F431221C974432515F5150D
:10182B00E43514F5147F4C1221C9744C2515F515AC
:10183B00E43514F514AF321221C9E5322515F5152F
:10184B00E43514F514AF331221C9E5332515F5151D
:10185B00E43514F514AF341221C9E5342515F5150B
:10186B00E43514F514AF351221C9E5352515F515F9
:10187B00E43514F514AF361221C9E5362515F515E7
:10188B00E43514F514AF371221C9E5372515F515D5
:10189B00E43514F5147F131221C974132515F515AE
:1018AB00E43514F5147F481221C974482515F51534
:1018BB00E43514F514E4F516C3E516940774809417
:1018CB0080502F74442516F582E43402F583E0FF33
:1018DB001221C974442516F582E43402F583E0FF26
:1018EB003395E0FEEF2515F515EE3514F5140516B9
:0D18FB0080C6E514FF1221C9AF150221C9F6
:10190800E4F514F5157F431221C974432515F5151F
:10191800E43514F5147F4C1221C9744C2515F515BE
:10192800E43514F514AF321221C9E5322515F51541
:10193800E43514F514AF331221C9E5332515F5152F
:10194800E43514F514AF341221C9E5342515F5151D
:10195800E43514F514AF351221C9E5352515F5150B
:10196800E43514F514AF361221C9E5362515F515F9
:10197800E43514F514AF371221C9E5372515F515E7
:10198800E43514F5147F131221C974132515F515C0
:10199800E43514F5147F4B1221C9744B2515F51540
:1019A800E43514F514E4F516C3E516940774809429
:1019B80080502F74442516F582E43402F583E0FF45
:1019C8001221C974442516F582E43402F583E0FF38
:1019D8003395E0FEEF2515F515EE3514F5140516CB
:0D19E80080C6E514FF1221C9AF150221C908
:10161000E4F514F5157F431221C974432515F5151A
:10162000E43514F5147F4C1221C9744C2515F515B9
:10163000E43514F514AF321221C9E5322515F5153C
:10164000E43514F514AF331221C9E5332515F5152A
:10165000E43514F514AF341221C9E5342515F51518
:10166000E43514F514AF351221C9E5352515F51506
:10167000E43514F514AF361221C9E5362515F515F4
:10168000E43514F514AF371221C9E5372515F515E2
:10169000E43514F5147F311221C974312515F5157F
:1016A000E43514F5147F341221C974342515F51569
:1016B000E43514F514E4F516C3E516940474809427
:1016C00080501D744D2516F8E6FF1221C9744D2572
:1016D00016F8E62515F515E43514F514051680D829
:1016E000E4F516C3E516942174809480502F74F7A6
:1016F0002516F582E43402F583E0FF1221C974F760
:101700002516F582E43402F583E0FF3395E0FEEF21
:101710002515F515EE3514F514051680C6E514FFEC
:081720001221C9AF150221C915
:1013C000E4F514F5157F431221C974432515F5156D
:1013D000E43514F5147F4C1221C9744C2515F5150C
:1013E000E43514F514AF321221C9E5322515F5158F
:1013F000E43514F514AF331221C9E5332515F5157D
:10140000E43514F514AF341221C9E5342515F5156A
:10141000E43514F514AF351221C9E5352515F51558
:10142000E43514F514AF361221C9E5362515F51546
:10143000E43514F514AF371221C9E5372515F51534
:10144000E43514F5147F461221C974452515F515A8
:10145000E43514F5147F4C1221C9744C2515F5158B
:10146000E43514F514AF3F1221C9E53F2515F515F4
:10147000E43514F514E4F516C3E516940474809469
:1014800080501D744D2516F8E6FF1221C9744D25B4
:1014900016F8E62515F515E43514F514051680D86B
:1014A000E4F516C3E516942D74809480502F743F94
:1014B0002516F582E43403F583E0FF1221C974F7A1
:1014C0002516F582E43402F583E0FF3395E0FEEF64
:1014D0002515F515EE3514F514051680C6E514FF2F
:0814E0001221C9AF150221C958
:1014E800E4F514F5157F431221C974432515F51544
:1014F800E43514F5147F4C1221C9744C2515F515E3
:10150800E43514F514AF321221C9E5322515F51565
:10151800E43514F514AF331221C9E5332515F51553
:10152800E43514F514AF341221C9E5342515F51541
:10153800E43514F514AF351221C9E5352515F5152F
:10154800E43514F514AF361221C9E5362515F5151D
:10155800E43514F514AF371221C9E5372515F5150B
:10156800E43514F5147F461221C974452515F5157F
:10157800E43514F5147F4C1221C9744C2515F51562
:10158800E43514F514AF3F1221C9E53F2515F515CB
:10159800E43514F514E4F516C3E516940474809440
:1015A80080501D744D2516F8E6FF1221C9744D258B
:1015B80016F8E62515F515E43514F514051680D842
:1015C800E4F516C3E516941274809480502F740CB9
:1015D8002516F582E43404F583E0FF1221C974F777
:1015E8002516F582E43402F583E0FF3395E0FEEF3B
:1015F8002515F515EE3514F514051680C6E514FF06
:081608001221C9AF150221C92E
:101BA100E4F514F5157F431221C974432515F51584
:101BB100E43514F5147F4C1221C9744C2515F51523
:101BC100E43514F514AF321221C9E5322515F515A6
:101BD100E43514F514AF331221C9E5332515F51594
:101BE100E43514F514AF341221C9E5342515F51582
:101BF100E43514F514AF351221C9E5352515F51570
:101C0100E43514F514AF361221C9E5362515F5155D
:101C1100E43514F514AF371221C9E5372515F5154B
:101C2100E43514F51475160DAF161221C9E5162504
:101C310015F515E43514F514AF471221C9AF3F125C
:0D1C410021C9E514FF1221C9AF150221C908
:1019F500E4F514F5157F431221C974432515F51532
:101A0500E43514F5147F4C1221C9744C2515F515D0
:101A1500E43514F514AF321221C9E5322515F51553
:101A2500E43514F514AF331221C9E5332515F51541
:101A3500E43514F514AF341221C9E5342515F5152F
:101A4500E43514F514AF351221C9E5352515F5151D
:101A5500E43514F514AF361221C9E5362515F5150B
:101A6500E43514F514AF371221C9E5372515F515F9
:101A7500E43514F51475165DAF161221C9E5162562
:101A850015F515E43514F514AF471221C9AF3F120A
:101A950021C9E4F516C3E516945074809480502F3F
:101AA500746C2516F582E43403F583E0FF1221C931
:101AB500746C2516F582E43403F583E0FF3395E075
:101AC500FEEF2515F515EE3514F514051680C6E55A
:0A1AD50014FF1221C9AF150221C948
:021728008F141C
:10172A00E4F515F5167F431221C974432516F516FB
:10173A00E43515F5157F4C1221C9744C2516F5169A
:10174A00E43515F515AF321221C9E5322516F5161D
:10175A00E43515F515AF331221C9E5332516F5160B
:10176A00E43515F515AF341221C9E5342516F516F9
:10177A00E43515F515AF351221C9E5352516F516E7
:10178A00E43515F515AF361221C9E5362516F516D5
:10179A00E43515F515AF371221C9E5372516F516C3
:1017AA00E43515F5157F441221C974442516F5163A
:1017BA00E43515F5157F471221C974472516F51624
:1017CA00E43515F515AF141221C9AF14EF3395E0BE
:1017DA00FEEF2516F516EE3515F515E4F517C3E5F2
:1017EA0017940474809480501D744D2517F8E6FFF1
:1017FA001221C9744D2517F8E62516F516E4351594
:10180A00F515051780D8E515FF1221C9AF16022173
:01181A00C904
:101ADF00E4FDF514F515FFE51DFB3395E0FAEB2456
:101AEF00FEFBEA34FFFAEFC39BEA6480F874809838
:101AFF00501D74C62FF582E43403F583E0FB339554
:101B0F00E0FAEB2515F515EA3514F5140F80C8E545
:101B1F001DFB3395E0FA74C52BF58274033AF583F8
:101B2F00E0651560028068E514FF74C42BF58274BC
:101B3F00033AF583E06F600280559003C6E0B4531B
:101B4F0006A3E06456600280469003C8E0653260E9
:101B5F0002803C9003C9E06533600280329003CA73
:101B6F00E06534600280289003CBE0653560028029
:101B7F001E9003CCE06536600280149003CDE065C3
:101B8F00376002800A9003CEE0651D600280007FFF
:011B9F000144
:011BA0002222
:101DD000E4F53FE54724B9604D24F3601724F16032
:101DE0000C24EE604124FD7044C2068040D206758A
:101DF00040028039AF3E7E00D3EF9400748094801F
:101E0000402BD3EF940A748094805021EF75F064D6
:101E1000A485F04BF54CE4FFFE1221A8AD3EE4FF93
:101E2000FE122163800775482FC202C200021BA167
:1020EF00E4FFEFC3944674809480500F74C62FF5AD
:1020FF0082E43403F583E4F00F80E7E4F545F54619
:02210F00F51DBC
:0121110022AB
:10120300E548121FC2124E01125E03127E09131E1D
:101213000B126E0F12AE1112BE1312DE1912EE1B59
:10122300133E21130E23128E25129E27135E2B13BA
:10123300662C137A2E13982F137032132E3812CE76
:101243003E12FE40134E42000013BF1220EF7B01FB
:101253007A0279F3122084754802221220EF7B016F
:101263007A027931122084754804221220EF7B011F
:101273007A0279E5122084754810221220EF7B014F
:101283007A0079F812208475480A221220EF7B0134
:101293007A0179CB122084754826221220EF7B0134
:1012A3007A0179FA122084754828221220EF7B01F3
:1012B3007A00794B122084754812221220EF7B01A9
:1012C3007A00790A122084754814221220EF7B01D8
:1012D3007A00798C12208475483F221220EF7B011B
:1012E3007A0179DB12208475481A221220EF7B01E0
:1012F3007A0179DB12208475481C221220EF7B01CE
:101303007A017946122084754841221220EF7B012D
:101313007A00790A122084754824221220EF7B0177
:101323007A00799612208475480C221220EF7B01F3
:101333007A01793A122084754839221220EF7B0111
:101343007A007900122084754822221220EF7B0153
:101353007A00793F12208475484322E54064147073
:101363005B804D1220EF12181B75482D221220EFBF
:1013730012190875483322300708300605C20712D0
:101383001610300806C2087F58800730092EC2099C
:101393007F5902172830021CC202E54764756007B3
:1013A3001219F575482E22121BA17541057542DCF1
:0D13B30075482C22300005C200121BA1223B
:10004600E548121FC2008E0200CA0405590802E0E4
:100056000A047E0C05031005AE12060414011E1ACE
:1000660001B41C038022065F2403D6260429280631
:10007600BA2D07832E07793106FC33028C3F0237EF
:1000860041033343000007DFC3E546941EE545946C
:10009600004021AF1DEF3395E0FEC3EF9401EE64FF
:1000A600809480400F9003C6E0646160030207DF1E
:1000B60075480322C3E5469464E54594005003025F
:1000C60007DF804BC3E546941EE54594004032AFFA
:1000D6001DEF3395E0FEC3EF9401EE6480948040FB
:1000E600209003C6E0642B60030207DFA3E0646F81
:1000F60060030207DFA3E0646B60030207DF02050B
:1001060055C3E5469464E545940050030207DF7540
:10011600410075426402021CC3E546941EE54594FF
:10012600004062AF1DEF3395E0FEC3EF9401EE642D
:1001360080948040509003D3E064447028A3E06428
:10014600697022A3E0B4731DC3E51A9464748094A5
:1001560080500C75410075420A754819051A22E44B
:10016600F51A0202889003CFE0642B60030207DFD2
:10017600A3E0646F60030207DFA3E0646B60030221
:1001860007DF0203D2C3E5469464E54594005003B5
:100196000207DFE518940A74809480500B754100BD
:1001A60075426405180202C5E4F518020288C3E523
:1001B60046941EE54594004061AF1DEF3395E0FE81
:1001C600C3EF9401EE64809480404F9003D3E0B473
:1001D6004413A3E0B4690EA3E0B473097541007536
:1001E600426402069E9003CFE0B42B0DA3E0B46FE9
:1001F60008A3E0B46B030203D29003C6E064736005
:10020600030207DFA3E0646F60030207DFA3E06475
:100216006B60030207DF75480122C3E54694C8E513
:1002260045940050030207DF7541007542C8020677
:100236009EC3E546941EE54594004032AF1DEF335C
:1002460095E0FEC3EF9401EE648094804020900315
:10025600D3E0642B60030207DFA3E0646F60030250
:1002660007DFA3E0646B60030207DF0206B6C3E59F
:10027600469464E545940050030207DF7541007516
:10028600426475484022C3E546941EE54594004005
:1002960032AF1DEF3395E0FEC3EF9401EE64809418
:1002A600804020D3EF940FEE6480948050030207C1
:1002B600DF9003D4E0B44107A3E0B4500280127586
:1002C600481922C3E5469464E545940050030207A5
:1002D600DF7541007542640205E8C3E546941EE5F4
:1002E6004594004031AF1DEF3395E0FEC3EF940116
:1002F600EE64809480401F9003CFE0642B6003027D
:1003060007DFA3E0646F60030207DFA3E0646B60AE
:10031600030207DF8048C3E5469464E54594005030
:10032600030207DF7541007542640203BAC3E5465E
:10033600941EE5459400402AAF1DEF3395E0FEC3B9
:10034600EF9401EE6480948040189003C9E0643D08
:1003560060030207DFA3E0646F60030207DF7548EE
:100366002B22C3E5469464E545940050030207DF5B
:100376007541037542E875484222C3E546941EE579
:100386004594004033AF1DEF3395E0FEC3EF940173
:10039600EE6480948040219003D3E0643D600302C4
:1003A60007DFA3E0646F60030207DFA3E0646E600B
:1003B600030207DF75480922C3E5469464E54594C0
:1003C6000050030207DF754100754264754821221B
:1003D600C3E546941EE54594004031AF1DEF3395C5
:1003E600E0FEC3EF9401EE64809480401F9003D634
:1003F600E0642B60030207DFA3E0646F600302077B
:10040600DFA3E0646B60030207DF8068C3E5469400
:1004160064E545940050030207DF754100754264A8
:1004260002053DC3E546941EE54594004032AF1DE6
:10043600EF3395E0FEC3EF9401EE64809480402094
:100446009003DEE0642B60030207DFA3E0646F60C5
:10045600030207DFA3E0646B60030207DF0204FF09
:10046600C3E5469464E545940050030207DF7541F1
:100476000075426475482722C3E546941EE54594F7
:10048600004062AF1DEF3395E0FEC3EF9401EE64CA
:1004960080948040509003D0E0642B60030207DF15
:1004A600A3E0646F60030207DFA3E0646B600302EE
:1004B60007DF9003D412214B8F329003D612214BC3
:1004C6008F339003D812214B8F349003DA12214BCD
:1004D6008F359003DC12214B8F369003DE12214BB1
:1004E6008F37020600C3E5469464E5459400500341
:1004F6000207DF75410075426475480B22C3E54665
:10050600941EE54594004033AF1DEF3395E0FEC3DE
:10051600EF9401EE6480948040219003D4E0642B34
:1005260060030207DFA3E0646F60030207DFA3E056
:10053600646B60030207DF75482522C3E5469464B1
:10054600E545940050030207DF7541007542647566
:10055600480F22C3E546941EE54594004032AF1D80
:10056600EF3395E0FEC3EF9401EE64809480402063
:100576009003D3E0642B60030207DFA3E0646F609F
:10058600030207DFA3E0646B60030207DF02065B7A
:10059600C3E5469464E545940050030207DF7541C0
:1005A6000075426475480722C3E546941EE54594E6
:1005B600004033AF1DEF3395E0FEC3EF9401EE64C8
:1005C60080948040219003F7E0642B60030207DFEC
:1005D600A3E0646F60030207DFA3E0646B600302BD
:1005E60007DF75483E22C3E5469464E5459400500E
:1005F600030207DF75410075426475481122C3E5A1
:1006060046941EE54594004038AF1DEF3395E0FE55
:10061600C3EF9401EE6480948040269003CCE0649E
:100626002B60030207DFA3E0646F60030207DFA30A
:10063600E0646B60030207DFF54175429675480575
:1006460022C3E5469464E545940050030207DF752E
:10065600410075426475481322C3E546941EE5457C
:1006660094004038AF1DEF3395E0FEC3EF9401EEE2
:100676006480948040269003CCE0642B60030207DC
:10068600DFA3E0646F60030207DFA3E0646B60032F
:100696000207DFF54175429675481B22C3E546946D
:1006A60064E545940050030207DF75410075426416
:1006B60075482322C3E546941EE54594004025AFC0
:1006C6001DEF3395E0FEC3EF9401EE648094804005
:1006D60013121ADFEF601B9003CFE0B4480475488D
:1006E6003222800EC3E546942CE545940150030260
:1006F60007DF75482C22C3E546941EE54594004065
:100706005FAF1DEF3395E0FEC3EF9401EE64809476
:1007160080404D9003C8E0644B60030207DFA3E00E
:10072600FF3395E0FEEF64164E60030207DFFFEF2E
:10073600C3941274809480501B74CA2FF582E434DB
:1007460003F583E0FE740C2FF582E43404F583EEA2
:10075600F00F80DB1214E8754830E4F53FC2022240
:10076600C3E546942CE5459401406EE4F53F12132B
:10077600C080063002031213C075482E22C3E54618
:10078600941EE54594004043AF1DEF3395E0FEC34C
:10079600EF9401EE648094804031121ADFEF6036E8
:1007A6009003CEE0FF3395E0FEEF640E4E7027A374
:1007B600E0F547A3E0F53EA3E0F538E53E75F00A1F
:1007C600A485F056F557121DD0800BC3E5469464F8
:0907D600E545940040031220EFF8
:0107DF0022F7
:101E3000EFFD7C00C3943074809480400FD3ED9408
:101E40003974809480500574D02FFF22C3ED9441E3
:101E5000EC648094804010D3ED9446EC64809480D0
:101E6000500574C92FFF22C3ED9461EC6480948007
:101E70004010D3ED9466EC64809480500574A92FD3
:051E8000FF227FFF229C
:05214B00E0FFA3E0FD30
:02215000AE05DA
:10215200121E30EFC454F0FBAF06121E30EF2BFFFD
:01216200225A
:1020240012000EE4FFFE122130EFFD7C00D3940079
:1020340074809480400AD3ED940A748094804002A2
:102044007F01EF75F064A485F04BF54C7F007E02B0
:052054001221308F5243
:012059002264
:0D000E00E4F5C7F5C5F5C675C380F5C4223D
:1021300075C78375C5018FC4EEFF8FC375C65A7509
:0A214000C6A500ADC212000EAF05E7
:01214A002272
:1021630075C78375C5028FC4EEFF8FC38DC275C655
:082173005A75C6A50002000E1A
:1021A80075C78375C5038FC4EEFF8FC375C65A758F
:0621B800C6A50002000EA6
:101CEF00020003E493A3F8E493A34003F68001F208
:101CFF0008DFF48029E493A3F85407240CC8C333F6
:101D0F00C4540F4420C8834004F456800146F6DFC4
:101D1F00E4800B0102040810204080900CBDE47E8B
:101D2F00019360BCA3FF543F30E509541FFEE493B9
:101D3F00A360010ECF54C025E060A840B8E493A380
:101D4F00FAE493A3F8E493A3C8C582C8CAC583CAAB
:101D5F00F0A3C8C582C8CAC583CADFE9DEE780BE63
:01103D0000B2
:101FA900BB010689828A83E0225002E722BBFE0236
:091FB900E32289828A83E4932269
:101FC200D083D082F8E4937012740193700DA3A3AE
:101FD20093F8740193F5828883E4737402936860C2
:061FE200EFA3A3A380DFC2
:00000001FF
