:03000000021AFFE2
:0C1AFF00787FE4F6D8FD758157021B4685
:08000300121D3F121E7680FB66
:0B1FDA00E4F58A758CDCD28CD2A922C1
:03000B00021FF4DD
:031FF400D20E32D8
:101D8400C20E0544E544700205430546E54670026B
:101D94000545E53B453A6008E53B153B7002153ABD
:101DA400E54245416008E5421542700215410511BE
:101DB400C3E511940A748094804005E4F511D20BB4
:011DC40022FC
:101B8B00C20B300108054AE54A70020549E5574585
:101B9B00566008E557155770021556D2CD0512C37E
:101BAB00E5129405748094804008E4F512A20CB3FE
:101BBB00920C0510C3E510940A7480948040211296
:101BCB001FAEE4F510A20DB3920DE5487012FF7E27
:101BDB0002121F4CEF64637004754836227548017E
:011BEB0022D7
:101F2E00E4F591F59275B04375B14075B24090FEEF
:0E1F3E0013E054BFF075C810E4F5C9F5CA22CF
:071FED0075C10443C120226D
:101D3F00C2AF121F2E121FED121FDA120026121F32
:101D4F0097121EC5753A03753BE8E4F540F54B75E0
:101D5F004C64F539753001753C01F53DF554F5517D
:101D6F00F52FF550F54FF54EF54D121EE8121E40AA
:051D7F00D2CDD2AF221D
:01004100229C
:101E760043C110120041300E03121D84300B0312B1
:101E86001B8BE53B453A7003120E9312061DE54285
:0A1E96004541700312105802004687
:101EC500E4FFEFC3945A74809480500F74842FF507
:101ED50082E43403F583E4F00F80E7E4F518F54375
:021EE500F544C2
:011EE70022D8
:100E9300E540121DDE0EDE000EEA020EF6040F021E
:100EA300060F10070F1E080F2C0C0F3B0E0F4A10D6
:100EB3000F95120F59140FB9150FA1170FAD190F75
:100EC300C71A0FD31C0FE91E0FF520100122102A99
:100ED3002410362610422800001057121EC57F30FA
:100EE30012001B75400122121EC57F3012001B75B4
:100EF300400322121EC57F4712001B7540052212B4
:100F03001EC57F7512001BD20975400922121EC52A
:100F13007F3012001BD20975400A22121EC57F754D
:100F230012001BD20975400B22121EC57F621200EC
:100F33001B75476275400D22121EC57F5312001B9D
:100F430075475375400F22121EC57F7012001B7523
:100F5300477075401122E548642C700B121EC520A2
:100F63000603021057802EE548642D7018E54724C8
:100F73008B6008242E70087540042275400722E414
:100F8300F53FD20222E548642E60030210577540F4
:100F93001A22121EC57F3312001B75401322121E24
:100FA300C57F3412001B75401822121EC57F3512EF
:100FB300001B75402A22121EC5C202AF4712001B36
:100FC30075401622121EC57F5712001B75401B2247
:100FD300121EC57F3012001B7F3212001B7F33129B
:100FE300001B75401D22121EC57F4D12001B75404C
:100FF3001F22121EC57F6712001B75402122121E7D
:10100300C5E4F514C3E514942D74809480501474CE
:10101300572514F582E43403F583E0FF12001B0522
:101023001480E175402322121EC57F6B12001B75CD
:10103300402522121EC57F5712001B75402722121E
:101043001EC57F3012001B7F3012001B7F30120041
:041053001B754029A0
:011057002276
:10061D00E540121DDE06650106A70306E40508FA8E
:10062D000909140A09580B072B0D077F0F07BF1176
:10063D0007EF1308BC16083B1809721B09B71D09F3
:10064D00CD1F0A08210A49230A97250AAA270AF16C
:10065D002908752A00000AF9C3E5449405E5439479
:10066D00004027AF18EF3395E0FEC3EF9401EE6421
:10067D008094804015900384E0B4310675400202E9
:10068D000940E4F540F53A020ADEC3E5449464E519
:10069D004394005003020AF98039C3E5449405E5FB
:1006AD004394004020AF18EF3395E0FEC3EF940163
:1006BD00EE64809480400E900384E0643160030208
:1006CD000AF9020838C3E5449464E54394005003E5
:1006DD00020AF9E4F54022C3E5449405E54394008C
:1006ED00402CAF18EF3395E0FEC3EF9401EE64801C
:1006FD009480401A900384E0FFB4310475400E22BB
:10070D0075400C753A03753BE88F3FD20022C3E567
:10071D004494F4E54394015003020AF98050C3E573
:10072D00449405E54394004037AF18EF3395E0FE50
:10073D00C3EF9401EE648094804025900384E0FF24
:10074D00B4340675400E020A7CEFB4320B75400CC2
:10075D00753A00753BC880457540148F3FD2022213
:10076D00C3E54494C8E54394005003020AF975406B
:10077D000C22C3E5449405E54394004025AF18EFE2
:10078D003395E0FEC3EF9401EE64809480401390A6
:10079D000384E064316003020AF9754010F53FD21D
:1007AD000022C3E54494DCE54394055003020AF9A5
:1007BD008079C3E5449405E54394004015AF18EFE7
:1007CD003395E0FEC3EF944FEE64809480400302B6
:1007DD000AF4C3E54494DCE54394055003020AF999
:1007ED008049C3E5449405E54394004030AF18EFCC
:1007FD003395E0FEC3EF9401EE64809480401E902B
:10080D000384E0B4310475401722C3E5449464E5D4
:10081D004394005003020AF9D2080208E1C3E544EB
:10082D009464E54394005003020AF90208E1C3E51C
:10083D00449405E5439400401DAF18EF3395E0FE59
:10084D00C3EF941FEE64809480400B7F017E0012F5
:10085D001CA175401922C3E5449464E543940050EE
:10086D0003020AF9D209806CC3E5449405E543946B
:10087D0000402AAF18EF3395E0FEC3EF9403EE640A
:10088D008094804018754014E54C24F0F53BE54B01
:10089D0034FFF53AE4FFFE121CA1D20722C3E54452
:1008AD009464E54394005003020AF9D2098025C3EC
:1008BD00E5449405E5439400401EAF18EF3395E0F1
:1008CD00FEC3EF9401EE64809480400CD202753A21
:1008DD0000753B0A75401422C3E54494ACE543947E
:1008ED000D5003020AF975401475482C22C3E544D6
:1008FD009405E54394005003020AF9753A00753BDF
:10090D0064754007D20222C3E5449405E543940083
:10091D004027AF18EF3395E0FEC3EF9401EE6480EE
:10092D0094804015900384E0B43105754008800330
:10093D00754007753A00020ADEC3E5449464E54349
:10094D0094005003020AF975400722C3E54494054B
:10095D00E54394005003020AF9753A00753B64E4CF
:10096D00F540D20222C3E5449405E54394004028A6
:10097D00AF18EF3395E0FEC3EF9401EE64809480E1
:10098D004016900384E0B4310675401C020AD175FF
:10099D00401A753A00020ADEC3E5449464E54394B7
:1009AD00005003020AF975401A22C3E5449405E587
:1009BD004394005003020AF9753A00753B64803781
:1009CD00C3E5449405E5439400401EAF18EF3395FD
:1009DD00E0FEC3EF9457EE64809480400C121A6AC7
:1009ED00753A00753B64020A93C3E5449464E5438C
:1009FD0094005003020AF975401E22C3E544940584
:100A0D00E54394004026AF18EF3395E0FEC3EF9415
:100A1D0001EE648094804014900384E0B431047539
:100A2D00402222754020753A00020ADEC3E5449447
:100A3D0064E54394005003020AF9804AC3E54494E7
:100A4D000AE54394004034AF18EF3395E0FEC3EF51
:100A5D009401EE648094804022900384E0FFB432D0
:100A6D0007754026753F0122EFB43307754026E424
:100A7D00F53F22754020753A008056C3E5449464D5
:100A8D00E5439400406675402022C3E5449405E596
:100A9D004394004057753A00753B0A8043C3E544C3
:100AAD009405E5439400402DAF18EF3395E0FEC358
:100ABD00EF9401EE64809480401B900384E0B43188
:100ACD000A754028753A00753B0A22754026753A1D
:100ADD0000753B6422C3E5449464E5439400400CE7
:0D0AED007540262275482F754014D2022254
:101CA100EF64014E7026FDEDC3941F748094805043
:101CB1004274842DF582E43403F583E0FF740F2D23
:101CC100F582E43403F583EFF00D80DB7D01EDC394
:101CD100940374809480501B74842DF582E4340342
:101CE100F583E0FF742D2DF582E43403F583EFF0E5
:031CF1000D80DB88
:011CF40022CD
:101A6A009003577431F0A3F0A314F0A3F07F04EFAE
:101A7A00C3942874809480501DEF25E02485F58254
:101A8A00E43403F583E0FE74572FF582E43403F55A
:101A9A0083EEF00F80D990037F7430F0A3F0A3F0A7
:101AAA00A3F0A3740DF07F10EFC394167480948092
:101ABA00501B74D22FF582E43403F583E0FE745789
:101ACA002FF582E43403F583EEF00F80DB7F1CEF01
:101ADA00C3942874809480501B74CC2FF582E4340C
:101AEA0003F583E0FE74572FF582E43403F583EEA1
:041AFA00F00F80DB8E
:011AFE0022C5
:101FAE00E5502401F550E4354FF54FE4354EF54E2E
:061FBE00E4354DF54D2253
:03002300021E04B6
:101E0400C0E0C083C082C0D075D008309904C299A4
:101E1400C20F30981EC298AF180518EF3395E0FE34
:101E240074842FF58274033EF583E599F0754300BD
:0C1E3400754400D0D0D082D083D0E032C2
:10002600759850758BD0758DFF438E40538EFED2DA
:0B0036008ED2ACE4F519F518C20F22C1
:08001B00200FFDD20F8F992286
:03004300021CF5A7
:101CF500C0E0C083C082C0D075D000C006C007E573
:101D05009A30E105539AFDC210E59A30E01F539AC7
:101D1500FEAF1A051AEF3395E0FE74DE2FF58274D7
:101D2500033EF583E59BF0754500754600D007D069
:0A1D350006D0D0D082D083D0E03277
:101F9700759A1075D7E875D6FF438E14E4F51BF5CF
:071FA7001AC21043AF012232
:081FE5002010FDD2108F9B2299
:101EA0008B148A158916AB14AA15A916121DC560C4
:101EB000130516E5167002051514F9121DC5FF125B
:051EC0001FE580E22295
:100AFA0044030B2B2B2B004200E96100420249619F
:100B0A00004800372B6F6B0D0A0D0A004A0094410A
:100B1A00542B434D4450570D0055021541542B4355
:100B2A004D4450570A0D2B6F6B3D47540D0A0D0A61
:100B3A00004D01EB41542B434D4450573D47540D52
:100B4A00005502D041542B434D4450573D47540A57
:100B5A000D2B6F6B0D0A0D0A0049010041542B45FC
:100B6A004E544D0D0051024B41542B454E544D0AE3
:100B7A000D2B6F6B0D0A0D0A004A009E61742B77CC
:100B8A00736D61630D005F022A41542B57534D4127
:100B9A00430A0D2B6F6B3D4135413441334132419C
:100BAA003141300D0A0D0A005001A461742B6E7296
:100BBA006567656E3D412C6F6E0D00580283415486
:100BCA002B4E524547454E3D412C6F6E0A0D2B6FF9
:100BDA006B0D0A0D0A005801D361742B6E7265679A
:100BEA0064743D412C434C254D4143435245470DC6
:100BFA00005A02B641542B6E72656764743D412CEB
:100C0A00254D41430A0D2B6F6B0D0A0D0A00550045
:100C1A007F41542B534D4152544150434F4E464904
:100C2A00473D6F6E0D005D01F841542B534D415203
:100C3A00544150434F4E4649473D6F6E0A0D2B6F44
:100C4A006B0D0A0D0A004E02FD61742B776D6F64FD
:100C5A00653D7374610D005600D341542B574D4FB7
:100C6A0044453D7374610A0D2B6F6B0D0A0D0A0022
:100C7A006024004B61742B6E6574703D7463702C34
:100C8A00636C69656E742C38302C31352E313532EF
:100C9A002E34342E34350D00602C017841542B4EFD
:100CAA004554503D7463702C636C69656E742C38BE
:100CBA00302C31352E3135322E34342E34350A0D5E
:100CCA002B6F6B0D0A0D0A004901B461742B7773FF
:100CDA006C6B0D005B029B41542B57534C4B0A0D16
:100CEA002B6F6B3D53534944284D4143290D0A0D3F
:100CFA000A004E001061742B7463706469733D6F4F
:100D0A006E0D0056011741542B5443504449533D2C
:100D1A006F6E0A0D2B6F6B0D0A0D0A004B02E5610F
:100D2A00742B7463706469730D005600A841542BC8
:100D3A005443504449530A0D2B6F6B3D6F6E0D0A95
:100D4A000D0A004A000061742B7463706C6B0D000D
:100D5A005500EB41542B5443504C4B0A0D2B6F6BEF
:100D6A003D6F6E0D0A0D0A0046000A61742B7A0D5A
:100D7A00004E010941542B5A0A0D2B6F6B0D0A0DB7
:100D8A000A004C002B41542B544350544F3D300D14
:100D9A000054014F41542B544350544F3D300A0DD7
:100DAA002B6F6B0D0A0D0A004D02F041542B434D77
:100DBA004450573D47540D005500BE41542B434DF6
:100DCA004450573D47540A0D2B6F6B0D0A0D0A000C
:100DDA004C012D475441542B57534D41430D005F4D
:100DEA00026441542B57534D41430A0D2B6F6B3DFF
:100DFA004135413441334132413141300D0A0D0A06
:100E0A00004C003F475441542B5443504C4B0D0067
:100E1A0055016341542B5443504C4B0A0D2B6F6BB5
:100E2A003D6F6E0D0A0D0A0050006F475441542B56
:100E3A005443504449533D6F6E0D005601BD415411
:100E4A002B5443504449533D6F6E0A0D2B6F6B0D63
:100E5A000A0D0A004D001E475441542B5443504476
:100E6A0049530D0056013941542B544350444953B8
:100E7A000A0D2B6F6B3D6F6E0D0A0D0A0048025C5E
:080E8A00312E302E305F3400E0
:101EE8007532B17533B27534B37535B47536B575A9
:101EF80037B6121F0BE4F548F55275410275425882
:031F0800D20622DC
:10163700E4F514F5157F43121FE574432515F515D9
:10164700E43514F5147F4C121FE5744C2515F51578
:10165700E43514F514AF32121FE5E5322515F515FB
:10166700E43514F514AF33121FE5E5332515F515E9
:10167700E43514F514AF34121FE5E5342515F515D7
:10168700E43514F514AF35121FE5E5352515F515C5
:10169700E43514F514AF36121FE5E5362515F515B3
:1016A700E43514F514AF37121FE5E5372515F515A1
:1016B700E43514F5147F13121FE574132515F5157A
:1016C700E43514F5147F48121FE574482515F51500
:1016D700E43514F514E4F516C3E5169407748094FD
:1016E70080502F745C2516F582E43402F583E0FF01
:1016F700121FE5745C2516F582E43402F583E0FFDA
:101707003395E0FEEF2515F515EE3514F51405169E
:0D17170080C6E514FF121FE5AF15021FE5A7
:10172400E4F514F5157F43121FE574432515F515EB
:10173400E43514F5147F4C121FE5744C2515F5158A
:10174400E43514F514AF32121FE5E5322515F5150D
:10175400E43514F514AF33121FE5E5332515F515FB
:10176400E43514F514AF34121FE5E5342515F515E9
:10177400E43514F514AF35121FE5E5352515F515D7
:10178400E43514F514AF36121FE5E5362515F515C5
:10179400E43514F514AF37121FE5E5372515F515B3
:1017A400E43514F5147F13121FE574132515F5158C
:1017B400E43514F5147F4B121FE5744B2515F5150C
:1017C400E43514F514E4F516C3E51694077480940F
:1017D40080502F745C2516F582E43402F583E0FF13
:1017E400121FE5745C2516F582E43402F583E0FFEC
:1017F4003395E0FEEF2515F515EE3514F5140516B1
:0D18040080C6E514FF121FE5AF15021FE5B9
:10142C00E4F514F5157F43121FE574432515F515E6
:10143C00E43514F5147F4C121FE5744C2515F51585
:10144C00E43514F514AF32121FE5E5322515F51508
:10145C00E43514F514AF33121FE5E5332515F515F6
:10146C00E43514F514AF34121FE5E5342515F515E4
:10147C00E43514F514AF35121FE5E5352515F515D2
:10148C00E43514F514AF36121FE5E5362515F515C0
:10149C00E43514F514AF37121FE5E5372515F515AE
:1014AC00E43514F5147F31121FE574312515F5154B
:1014BC00E43514F5147F34121FE574342515F51535
:1014CC00E43514F514E4F516C3E51694047480940D
:1014DC0080501D744D2516F8E6FF121FE5744D253E
:1014EC0016F8E62515F515E43514F514051680D80F
:1014FC00E4F516C3E516942174809480502F740F74
:10150C002516F582E43403F583E0FF121FE5740F12
:10151C002516F582E43403F583E0FF3395E0FEEF06
:10152C002515F515EE3514F514051680C6E514FFD2
:08153C00121FE5AF15021FE5C7
:1011DC00E4F514F5157F43121FE574432515F51539
:1011EC00E43514F5147F4C121FE5744C2515F515D8
:1011FC00E43514F514AF32121FE5E5322515F5155B
:10120C00E43514F514AF33121FE5E5332515F51548
:10121C00E43514F514AF34121FE5E5342515F51536
:10122C00E43514F514AF35121FE5E5352515F51524
:10123C00E43514F514AF36121FE5E5362515F51512
:10124C00E43514F514AF37121FE5E5372515F51500
:10125C00E43514F5147F46121FE574452515F51574
:10126C00E43514F5147F4C121FE5744C2515F51557
:10127C00E43514F514AF3F121FE5E53F2515F515C0
:10128C00E43514F514E4F516C3E51694047480944F
:10129C0080501D744D2516F8E6FF121FE5744D2580
:1012AC0016F8E62515F515E43514F514051680D851
:1012BC00E4F516C3E516942D74809480502F745762
:1012CC002516F582E43403F583E0FF121FE5740F55
:1012DC002516F582E43403F583E0FF3395E0FEEF49
:1012EC002515F515EE3514F514051680C6E514FF15
:0812FC00121FE5AF15021FE50A
:10130400E4F514F5157F43121FE574432515F5150F
:10131400E43514F5147F4C121FE5744C2515F515AE
:10132400E43514F514AF32121FE5E5322515F51531
:10133400E43514F514AF33121FE5E5332515F5151F
:10134400E43514F514AF34121FE5E5342515F5150D
:10135400E43514F514AF35121FE5E5352515F515FB
:10136400E43514F514AF36121FE5E5362515F515E9
:10137400E43514F514AF37121FE5E5372515F515D7
:10138400E43514F5147F46121FE574452515F5154B
:10139400E43514F5147F4C121FE5744C2515F5152E
:1013A400E43514F514AF3F121FE5E53F2515F51597
:1013B400E43514F514E4F516C3E516940474809426
:1013C40080501D744D2516F8E6FF121FE5744D2557
:1013D40016F8E62515F515E43514F514051680D828
:1013E400E4F516C3E516941274809480502F742487
:1013F4002516F582E43404F583E0FF121FE5740F2B
:101404002516F582E43403F583E0FF3395E0FEEF1F
:101414002515F515EE3514F514051680C6E514FFEB
:08142400121FE5AF15021FE5E0
:1019BD00E4F514F5157F43121FE574432515F51550
:1019CD00E43514F5147F4C121FE5744C2515F515EF
:1019DD00E43514F514AF32121FE5E5322515F51572
:1019ED00E43514F514AF33121FE5E5332515F51560
:1019FD00E43514F514AF34121FE5E5342515F5154E
:101A0D00E43514F514AF35121FE5E5352515F5153B
:101A1D00E43514F514AF36121FE5E5362515F51529
:101A2D00E43514F514AF37121FE5E5372515F51517
:101A3D00E43514F51475160DAF16121FE5E51625D0
:101A4D0015F515E43514F514AF47121FE5AF3F1228
:0D1A5D001FE5E514FF121FE5AF15021FE5A0
:10181100E4F514F5157F43121FE574432515F515FD
:10182100E43514F5147F4C121FE5744C2515F5159C
:10183100E43514F514AF32121FE5E5322515F5151F
:10184100E43514F514AF33121FE5E5332515F5150D
:10185100E43514F514AF34121FE5E5342515F515FB
:10186100E43514F514AF35121FE5E5352515F515E9
:10187100E43514F514AF36121FE5E5362515F515D7
:10188100E43514F514AF37121FE5E5372515F515C5
:10189100E43514F51475165DAF16121FE5E516252E
:1018A10015F515E43514F514AF47121FE5AF3F12D6
:1018B1001FE5E4F516C3E516945074809480502F0B
:1018C10074842516F582E43403F583E0FF121FE5E5
:1018D10074842516F582E43403F583E0FF3395E043
:1018E100FEEF2515F515EE3514F514051680C6E540
:0A18F10014FF121FE5AF15021FE5FA
:021544008F1402
:10154600E4F515F5167F43121FE574432516F516C7
:10155600E43515F5157F4C121FE5744C2516F51666
:10156600E43515F515AF32121FE5E5322516F516E9
:10157600E43515F515AF33121FE5E5332516F516D7
:10158600E43515F515AF34121FE5E5342516F516C5
:10159600E43515F515AF35121FE5E5352516F516B3
:1015A600E43515F515AF36121FE5E5362516F516A1
:1015B600E43515F515AF37121FE5E5372516F5168F
:1015C600E43515F5157F44121FE574442516F51606
:1015D600E43515F5157F47121FE574472516F516F0
:1015E600E43515F515AF14121FE5AF14EF3395E08A
:1015F600FEEF2516F516EE3515F515E4F517C3E5D8
:1016060017940474809480501D744D2517F8E6FFD6
:10161600121FE5744D2517F8E62516F516E435155F
:10162600F515051780D8E515FF121FE5AF16021F41
:01163600E5CE
:1018FB00E4FDF514F515FFE51AFB3395E0FAEB243F
:10190B00FEFBEA34FFFAEFC39BEA6480F87480981D
:10191B00501D74DE2FF582E43403F583E0FB339521
:10192B00E0FAEB2515F515EA3514F5140F80C8E52B
:10193B001AFB3395E0FA74DD2BF58274033AF583C9
:10194B00E0651560028068E514FF74DC2BF582748A
:10195B00033AF583E06F600280559003DEE0B453E9
:10196B0006A3E06456600280469003E0E0653260B7
:10197B0002803C9003E1E06533600280329003E229
:10198B00E06534600280289003E3E06535600280F7
:10199B001E9003E4E06536600280149003E5E06579
:1019AB00376002800A9003E6E0651A600280007FD0
:0119BB00012A
:0119BC002208
:101BEC00E4F53FE54724B9604D24F3601724F16018
:101BFC000C24EE604124FD7044C2068040D2067570
:101C0C0040028039AF3E7E00D3EF94007480948004
:101C1C00402BD3EF940A748094805021EF75F064BC
:101C2C00A485F04BF54CE4FFFE121FC4AD3EE4FF5F
:101C3C00FE121F7F800775482DC202C2000219BD1B
:101F0B00E4FFEFC3944674809480500F74DE2FF57A
:101F1B0082E43403F583E4F00F80E7E4F545F546FE
:021F2B00F51AA5
:011F2D002291
:10105800E548121DDE109A0110AA0310BA05112ADC
:101068000710CA0910DA0D110A0F113A13114A159F
:10107800115A1710EA2310FA25117A2911822A1118
:10108800962C11B42D118C30111A36116A3C0000BF
:1010980011DB121F0B7B017A03790B121EA0754816
:1010A8000222121F0B7B017A027949121EA0754891
:1010B8000422121F0B7B017A007994121EA0754836
:1010C8000622121F0B7B017A017900121EA07548B7
:1010D8000A22121F0B7B017A00797F121EA0754825
:1010E8000E22121F0B7B017A0179A4121EA07548EB
:1010F8002422121F0B7B017A0179D3121EA0754896
:101108002622121F0B7B017A0279FD121EA0754858
:101118001022121F0B7B017A01792D121EA075482F
:101128003722121F0B7B017A0179EB121EA075483A
:101138000822121F0B7B017A00790A121EA075483B
:101148001422121F0B7B017A03790B121EA075481B
:101158001622121F0B7B017A027949121EA07548CC
:101168001822121F0B7B017A00793F121EA07548C6
:101178003D22E5406414705B804D121F0B12163738
:1011880075482B22121F0B1217247548312230077D
:1011980008300605C20712142C300806C2087F580A
:1011A800800730092EC2097F5902154430021CC23B
:1011B80002E5476475600712181175482C22121948
:1011C800BD7541057542DC75482A22300005C2000C
:0411D8001219BD2209
:10004600E548121DDE00820200BE0401120603A46A
:1000560008017A0A01CF0E03501003F912044F1457
:1000660002232402772604F72B05C02C05B62F059C
:10007600393102CC3704AA3D0000061CC3E546947C
:100086001EE54594004021AF1AEF3395E0FEC3EF1D
:100096009401EE64809480400F9003DEE06461601A
:1000A6000302061C75480322C3E5469464E545949D
:1000B60000500302061C804AC3E546941EE545949B
:1000C600004031AF1AEF3395E0FEC3EF9401EE64C2
:1000D600809480401F9003DEE0642B600302061CC0
:1000E600A3E0646F600302061CA3E0646B60030276
:1000F600061C807CC3E5469464E5459400500302E3
:10010600061C75410075426475480122C3E5469494
:100116001EE54594004045AF1AEF3395E0FEC3EF68
:100126009401EE648094804033D3EF940FEE6480A4
:10013600948040129003ECE0B44808A3E0B4460370
:100146000201CB02021F9003E8E0B42B0DA3E0B43A
:100156006F08A3E0B46B0302021F8014C3E5469444
:1001660064E5459400500302061C7541007542641F
:1001760075480522C3E546941EE54594004032AF16
:100186001AEF3395E0FEC3EF9401EE64809480404D
:10019600209003E7E0642B600302061CA3E0646F73
:1001A600600302061CA3E0646B600302061C0204E3
:1001B6008EC3E5469464E5459400500302061C751B
:1001C600410075426475480922C3E546941EE5451B
:1001D60094004031AF1AEF3395E0FEC3EF9401EE81
:1001E60064809480401F9003F3E0642B6003020652
:1001F6001CA3E0646F600302061CA3E0646B60034B
:1002060002061C8068C3E5469464E54594005003E5
:1002160002061C75410075426475480D22C3E54609
:10022600941EE54594004031AF1AEF3395E0FEC3C6
:10023600EF9401EE64809480401F9003EEE0642BFF
:10024600600302061CA3E0646F600302061CA3E0C1
:10025600646B600302061C8069C3E5469464E54549
:100266009400500302061C754100754264754823CC
:1002760022C3E546941EE54594004032AF1AEF339B
:1002860095E0FEC3EF9401EE6480948040209003D5
:10029600F6E0642B600302061CA3E0646F600302B1
:1002A600061CA3E0646B600302061C0203A0C3E500
:1002B600469464E5459400500302061C754100759A
:1002C600426475482522C3E546941EE545940040E0
:1002D60062AF1AEF3395E0FEC3EF9401EE648094AB
:1002E6008040509003DEE0642B600302061CA3E00E
:1002F600646F600302061CA3E0646B600302061CC5
:100306009003E2121F678F329003E4121F678F3348
:100316009003E6121F678F349003E8121F678F352C
:100326009003EA121F678F369003EC121F678F3710
:100336000204F3C3E5469464E545940050030206BF
:100346001C75410075426402048EC3E546941EE5A1
:100356004594004031AF1AEF3395E0FEC3EF9401A8
:10036600EE64809480401F9003ECE0642B600302EF
:10037600061CA3E0646F600302061CA3E0646B60C6
:100386000302061C8069C3E5469464E54594005063
:100396000302061C75410075426475480F22C3E5C9
:1003A60046941EE54594004032AF1AEF3395E0FEC1
:1003B600C3EF9401EE6480948040209003EBE064E8
:1003C6002B600302061CA3E0646F600302061CA3F5
:1003D600E0646B600302061C0204A6C3E54694644F
:1003E600E5459400500302061C754100754264758C
:1003F600480722C3E546941EE54594004033AF1AEC
:10040600EF3395E0FEC3EF9401EE648094804021C3
:10041600900402E0642B600302061CA3E0646F6094
:100426000302061CA3E0646B600302061C754832D7
:1004360022C3E5469464E5459400500302061C7504
:10044600410075426475481122C3E546941EE54590
:1004560094004038AF1AEF3395E0FEC3EF9401EEF7
:100466006480948040269003E4E0642B60030206D7
:100476001CA3E0646F600302061CA3E0646B6003C8
:1004860002061CF54175429675483622C3E5469428
:1004960064E5459400500302061C754100754264EC
:1004A60075481322C3E546941EE5459400402AAFDD
:1004B6001AEF3395E0FEC3EF9401EE64809480401A
:1004C600189003E1E0643D600302061CA3E0646F3C
:1004D600600302061C75482922C3E5469464E54577
:1004E6009400500302061C7541037542E875483CAA
:1004F60022C3E546941EE54594004025AF1AEF3326
:1005060095E0FEC3EF9401EE6480948040131218C8
:10051600FBEF601B9003E7E0B44804754830228087
:100526000EC3E546942CE5459401500302061C755E
:10053600482A22C3E546941EE5459400405FAF1A5B
:10054600EF3395E0FEC3EF9401EE64809480404D56
:100556009003E0E0644B600302061CA3E0FF3395C2
:10056600E0FEEF64164E600302061CFFEFC3941212
:1005760074809480501B74E22FF582E43403F58373
:10058600E0FE74242FF582E43404F583EEF00F8048
:10059600DB12130475482EE4F53FC20222C3E5467A
:1005A600942CE5459401406EE4F53F1211DC80067B
:1005B6003002031211DC75482C22C3E546941EE571
:1005C6004594004043AF1AEF3395E0FEC3EF940124
:1005D600EE6480948040311218FBEF60369003E69B
:1005E600E0FF3395E0FEEF640E4E7027A3E0F5477B
:1005F600A3E0F53EA3E0F538E53E75F00AA485F0E4
:1006060056F557121BEC800BC3E5469464E54594FA
:06061600004003121F0B5F
:01061C0022BB
:101C4C00EFFD7C00C3943074809480400FD3ED94EE
:101C5C003974809480500574D02FFF22C3ED9441C9
:101C6C00EC648094804010D3ED9446EC64809480B6
:101C7C00500574C92FFF22C3ED9461EC64809480ED
:101C8C004010D3ED9466EC64809480500574A92FB9
:051C9C00FF227FFF2282
:051F6700E0FFA3E0FD16
:021F6C00AE05C0
:101F6E00121C4CEFC454F0FBAF06121C4CEF2BFFAF
:011F7E002240
:101E400012000EE4FFFE121F4CEFFD7C00D3940045
:101E500074809480400AD3ED940A74809480400288
:101E60007F01EF75F064A485F04BF54C7F007E0296
:051E7000121F4C8F520F
:011E7500224A
:0D000E00E4F5C7F5C5F5C675C380F5C4223D
:101F4C0075C78375C5018FC4EEFF8FC375C65A75EF
:0A1F5C00C6A500ADC212000EAF05CD
:011F66002258
:101F7F0075C78375C5028FC4EEFF8FC38DC275C63B
:081F8F005A75C6A50002000E00
:101FC40075C78375C5038FC4EEFF8FC375C65A7575
:061FD400C6A50002000E8C
:101B0B00020003E493A3F8E493A34003F68001F2ED
:101B1B0008DFF48029E493A3F85407240CC8C333DB
:101B2B00C4540F4420C8834004F456800146F6DFAA
:101B3B00E4800B0102040810204080900AFAE47E36
:101B4B00019360BCA3FF543F30E509541FFEE4939F
:101B5B00A360010ECF54C025E060A840B8E493A366
:101B6B00FAE493A3F8E493A3C8C582C8CAC583CA91
:101B7B00F0A3C8C582C8CAC583CADFE9DEE780BE49
:010E9200005F
:101DC500BB010689828A83E0225002E722BBFE021C
:091DD500E32289828A83E493224F
:101DDE00D083D082F8E4937012740193700DA3A394
:101DEE0093F8740193F5828883E4737402936860A8
:061DFE00EFA3A3A380DFA8
:00000001FF
