:030000000217BA2A
:0C17BA00787FE4F6D8FD75815702180115
:080003001219FA121B3180FBF7
:0B1C9800E4F58A758CDCD28CD2A92206
:03000B00021CB222
:031CB200D20E321D
:101A3F00C20E0544E544700205430546E5467002B3
:101A4F000545E53B453A6008E53B153B7002153A05
:101A5F00E54245416008E542154270021541051106
:101A6F00C3E511940A748094804005E4F511D20BFC
:011A7F002244
:10184600C20B300108054AE54A70020549E55745CD
:10185600566008E557155770021556D2CD0512C3C6
:10186600E5129405748094804008E4F512A20CB346
:10187600920C0510C3E510940A74809480402112DE
:101886001C6CE4F510A20DB3920DE5487012FF7EB4
:1018960002121C22EF6463700475482C22754801FD
:0118A600221F
:101BE900E4F591F59275B04375B14075B24090FE38
:0E1BF90013E054BFF075C810E4F5C9F5CA2218
:071CAB0075C10443C12022B2
:1019FA00C2AF121BE9121CAB121C98120026121C51
:101A0A0055121B80753A03753BE8E4F540F54B75B2
:101A1A004C64F539753001753C01F53DF554F551C5
:101A2A00F52FF550F54FF54EF54D121BA3121AFB83
:051A3A00D2CDD2AF2265
:01004100229C
:101B310043C110120041300E03121A3F300B031241
:101B41001846E53B453A70031212751208ECE5425E
:0A1B510045417003120F4E020046DA
:101B8000E4FFEFC3944674809480500F74FC2FF5EB
:101B900082E43402F583E4F00F80E7E4F518F543BE
:021BA000F5440A
:011BA2002220
:10127500E540121A9912A80012B40212C00412CC49
:101285000612DA0712E80812F60C13050E131410ED
:10129500134F12132314137315135B1713671900D8
:1012A500001380121B807F3012001B754001221233
:1012B5001B807F3012001B75400322121B807F4765
:1012C50012001B75400522121B807F7512001BD270
:1012D5000975400922121B807F3012001BD2097547
:1012E500400A22121B807F7512001BD20975400B24
:1012F50022121B807F6212001B75476275400D220A
:10130500121B807F5312001B75475375400F221225
:101315001B807F7012001B75477075401122E548D0
:1013250064267008121B803006518021E548642729
:101335007049E547248B6008242E70087540042207
:1013450075400722E4F53FD20222121B807F33123B
:10135500001B75401322121B807F3412001B754041
:101365001822121B807F3512001B75401A22121B92
:0C13750080C202AF4712001B7540162218
:1008EC00E540121A99091C01095E03099B050BB21C
:1008FC00090BC90A0C0B0B09E20D0A370F0A771109
:10090C000AAA130B77160AF6180B301A00000C21E2
:10091C00C3E5449405E54394004027AF18EF3395A5
:10092C00E0FEC3EF9401EE6480948040159002FCCD
:10093C00E0B43106754002020BF5E4F540F53A02DD
:10094C000BF8C3E5449464E54394005003020C2176
:10095C008039C3E5449405E54394004020AF18EF7B
:10096C003395E0FEC3EF9401EE64809480400E90CA
:10097C0002FCE064316003020C21020AF3C3E5447B
:10098C009464E54394005003020C21E4F54022C327
:10099C00E5449405E5439400402CAF18EF3395E003
:1009AC00FEC3EF9401EE64809480401A9002FCE048
:1009BC00FFB4310475400E2275400C753A03753B3B
:1009CC00E88F3FD20022C3E54494F4E543940150F0
:1009DC0003020C218051C3E5449405E54394004087
:1009EC0038AF18EF3395E0FEC3EF9401EE648094BA
:1009FC008040269002FCE0FFB4340775400EE4F50D
:100A0C003F22EFB4320B75400C753A00753BC88031
:100A1C00457540148F3FD20222C3E54494C8E54388
:100A2C0094005003020C2175400C22C3E54494053C
:100A3C00E54394004025AF18EF3395E0FEC3EF94E7
:100A4C0001EE6480948040139002FCE064316003FA
:100A5C00020C21754010F53FD20022C3E54494DC12
:100A6C00E54394055003020C21807CC3E5449405B6
:100A7C00E54394004018AF18EF3395E0FEC3EF94B4
:100A8C004FEE648094804006754014D20222C3E578
:100A9C004494DCE54394055003020C218049C3E5E2
:100AAC00449405E54394004030AF18EF3395E0FED5
:100ABC00C3EF9401EE64809480401E9002FCE0B47D
:100ACC00310475401722C3E5449464E54394005007
:100ADC0003020C21D208020B9CC3E5449464E54349
:100AEC0094005003020C21020B9CC3E5449405E5D1
:100AFC00439400401DAF18EF3395E0FEC3EF941FF5
:100B0C00EE64809480400B7F017E0012195C75406E
:100B1C001922C3E5449464E54394005003020C216C
:100B2C00D209806CC3E5449405E5439400402AAF98
:100B3C0018EF3395E0FEC3EF9403EE64809480408D
:100B4C0018754014E54C24F0F53BE54B34FFF53AB1
:100B5C00E4FFFE12195CD20722C3E5449464E5431A
:100B6C0094005003020C21D2098025C3E54494055E
:100B7C00E5439400401EAF18EF3395E0FEC3EF94AD
:100B8C0001EE64809480400CD202753A00753B0AE9
:100B9C0075401422C3E54494ACE543940D4076753E
:100BAC00401475482622C3E5449405E5439400405F
:100BBC0064753A00753B64754007D20222C3E54464
:100BCC009405E54394004028AF18EF3395E0FEC33D
:100BDC00EF9401EE6480948040169002FCE0B431F6
:100BEC00057540088003754007753A00753B642213
:100BFC00C3E5449464E5439400401A75400722C34E
:100C0C00E5449405E5439400400B753A00753B644C
:060C1C00E4F540D20222C3
:10195C00EF64014E7026FDEDC3941F74809480508B
:10196C004274FC2DF582E43402F583E0FF74B42D4F
:10197C00F582E43402F583EFF00D80DB7D01EDC3DD
:10198C00940374809480501B74FC2DF582E4340213
:10199C00F583E0FF74D22DF582E43402F583EFF089
:0319AC000D80DBD0
:0119AF002215
:101C6C00E5502401F550E4354FF54FE4354EF54E73
:061C7C00E4354DF54D2298
:03002300021ABFFF
:101ABF00C0E0C083C082C0D075D008309904C299ED
:101ACF00C20F30981EC298AF180518EF3395E0FE7D
:101ADF0074FC2FF58274023EF583E599F07543008F
:0C1AEF00754400D0D0D082D083D0E0320B
:10002600759850758BD0758DFF438E40538EFED2DA
:0B0036008ED2ACE4F519F518C20F22C1
:08001B00200FFDD20F8F992286
:030043000219B0EF
:1019B000C0E0C083C082C0D075D000C006C007E5BB
:1019C0009A30E105539AFDC210E59A30E01F539A10
:1019D000FEAF1A051AEF3395E0FE74512FF58274AD
:1019E000033EF583E59BF0754500754600D007D0B2
:0A19F00006D0D0D082D083D0E032C0
:101C5500759A1075D7E875D6FF438E14E4F51BF514
:071C65001AC21043AF012277
:081CA3002010FDD2108F9B22DE
:101B5B008B148A158916AB14AA15A916121A806054
:101B6B00130516E5167002051514F9121A80FF12EB
:051B7B001CA380E22222
:100C22004402B02B2B2B004200DF61004202146110
:100C3200004800372B6F6B0D0A0D0A004A009461C1
:100C4200742B77736D61630D005F01F541542B576F
:100C5200534D41430A0D2B6F6B3D413541344133B6
:100C62004132413141300D0A0D0A00500191617447
:100C72002B6E726567656E3D412C6F6E0D005802DA
:100C82003D41542B4E524547454E3D412C6F6E0A15
:100C92000D2B6F6B0D0A0D0A005801C061742B6E8B
:100CA20072656764743D412C434C254D4143435268
:100CB20045470D005A027041542B6E726567647489
:100CC2003D412C254D41430A0D2B6F6B0D0A0D0A38
:100CD2000055007F41542B534D4152544150434FD4
:100CE2004E4649473D6F6E0D005D01D841542B536E
:100CF2004D4152544150434F4E4649473D6F6E0A53
:100D02000D2B6F6B0D0A0D0A004E02A261742B7738
:100D12006D6F64653D7374610D005600C941542BBB
:100D2200574D4F44453D7374610A0D2B6F6B0D0A8D
:100D32000D0A006024004B61742B6E6574703D7463
:100D420063702C636C69656E742C38302C31352ECF
:100D52003135322E34342E34350D00602C0165418C
:100D6200542B4E4554503D7463702C636C69656E10
:100D7200742C38302C31352E3135322E34342E3419
:100D8200350A0D2B6F6B0D0A0D0A004901A1617422
:100D92002B77736C6B0D005B025541542B57534CF0
:100DA2004B0A0D2B6F6B3D53534944284D41432948
:100DB2000D0A0D0A004E001061742B746370646991
:100DC200733D6F6E0D0056010441542B5443504441
:100DD20049533D6F6E0A0D2B6F6B0D0A0D0A004BC6
:100DE200028A61742B7463706469730D0056009EED
:100DF20041542B5443504449530A0D2B6F6B3D6FA2
:100E02006E0D0A0D0A004A000061742B7463706C47
:100E12006B0D005500E141542B5443504C4B0A0DCD
:100E22002B6F6B3D6F6E0D0A0D0A0046000A61744E
:100E32002B7A0D004E00F641542B5A0A0D2B6F6B84
:100E42000D0A0D0A004C002B41542B544350544FB1
:100E52003D300D0054013C41542B544350544F3DFE
:100E6200300A0D2B6F6B0D0A0D0A004D029541548D
:100E72002B434D4450573D48460D005500B4415454
:100E82002B434D4450573D48460A0D2B6F6B0D0ABC
:100E92000D0A004C011A484641542B57534D414309
:100EA2000D005F021E41542B57534D41430A0D2B37
:100EB2006F6B3D4135413441334132413141300D57
:100EC2000A0D0A004C003F484641542B5443504CF3
:100ED2004B0D0055015041542B5443504C4B0A0DBD
:100EE2002B6F6B3D6F6E0D0A0D0A0050006F484666
:100EF20041542B5443504449533D6F6E0D005601EB
:100F0200AA41542B5443504449533D6F6E0A0D2B52
:100F12006F6B0D0A0D0A004D001E484641542B54BA
:100F220043504449530D0056012641542B5443501B
:100F32004449530A0D2B6F6B3D6F6E0D0A0D0A006B
:0B0F4200480216312E302E305F3300C5
:101BA3007532B17533B27534B37535B47536B575F1
:101BB30037B6121BC6E4F548F55275410275425813
:031BC300D2062225
:10147400E4F514F5157F43121CA374432515F515E3
:10148400E43514F5147F4C121CA3744C2515F51582
:10149400E43514F514AF32121CA3E5322515F51505
:1014A400E43514F514AF33121CA3E5332515F515F3
:1014B400E43514F514AF34121CA3E5342515F515E1
:1014C400E43514F514AF35121CA3E5352515F515CF
:1014D400E43514F514AF36121CA3E5362515F515BD
:1014E400E43514F514AF37121CA3E5372515F515AB
:1014F400E43514F5147F13121CA374132515F51584
:10150400E43514F5147F48121CA374482515F51509
:10151400E43514F514E4F516C3E5169407748094C1
:1015240080502F74162516F582E43402F583E0FF0B
:10153400121CA374162516F582E43402F583E0FF29
:101544003395E0FEEF2515F515EE3514F514051663
:0D15540080C6E514FF121CA3AF15021CA3F6
:10115D00E4F514F5157F43121CA374432515F515FD
:10116D00E43514F5147F4C121CA3744C2515F5159C
:10117D00E43514F514AF32121CA3E5322515F5151F
:10118D00E43514F514AF33121CA3E5332515F5150D
:10119D00E43514F514AF34121CA3E5342515F515FB
:1011AD00E43514F514AF35121CA3E5352515F515E9
:1011BD00E43514F514AF36121CA3E5362515F515D7
:1011CD00E43514F514AF37121CA3E5372515F515C5
:1011DD00E43514F5147F31121CA374312515F51562
:1011ED00E43514F5147F34121CA374342515F5154C
:1011FD00E43514F514E4F516C3E5169404748094DF
:10120D0080501D744D2516F8E6FF121CA3744D2554
:10121D0016F8E62515F515E43514F514051680D8E0
:10122D00E4F516C3E516942174809480502F74B4A0
:10123D002516F582E43402F583E0FF121CA374B485
:10124D002516F582E43402F583E0FF3395E0FEEFD9
:10125D002515F515EE3514F514051680C6E514FFA4
:08126D00121CA3AF15021CA323
:10170D00E4F514F5157F43121CA374432515F51547
:10171D00E43514F5147F4C121CA3744C2515F515E6
:10172D00E43514F514AF32121CA3E5322515F51569
:10173D00E43514F514AF33121CA3E5332515F51557
:10174D00E43514F514AF34121CA3E5342515F51545
:10175D00E43514F514AF35121CA3E5352515F51533
:10176D00E43514F514AF36121CA3E5362515F51521
:10177D00E43514F514AF37121CA3E5372515F5150F
:10178D00E43514F51475160DAF16121CA3E51625C8
:10179D0015F515E43514F514AF47121CA3AF3F1220
:0D17AD001CA3E514FF121CA3AF15021CA322
:10156100E4F514F5157F43121CA374432515F515F5
:10157100E43514F5147F4C121CA3744C2515F51594
:10158100E43514F514AF32121CA3E5322515F51517
:10159100E43514F514AF33121CA3E5332515F51505
:1015A100E43514F514AF34121CA3E5342515F515F3
:1015B100E43514F514AF35121CA3E5352515F515E1
:1015C100E43514F514AF36121CA3E5362515F515CF
:1015D100E43514F514AF37121CA3E5372515F515BD
:1015E100E43514F51475165DAF16121CA3E5162526
:1015F10015F515E43514F514AF47121CA3AF3F12CE
:101601001CA3E4F516C3E516945074809480502F02
:1016110074FC2516F582E43402F583E0FF121CA365
:1016210074FC2516F582E43402F583E0FF3395E07E
:10163100FEEF2515F515EE3514F514051680C6E5F2
:0A16410014FF121CA3AF15021CA336
:021381008F14C7
:10138300E4F515F5167F43121CA374432516F516D1
:10139300E43515F5157F4C121CA3744C2516F51670
:1013A300E43515F515AF32121CA3E5322516F516F3
:1013B300E43515F515AF33121CA3E5332516F516E1
:1013C300E43515F515AF34121CA3E5342516F516CF
:1013D300E43515F515AF35121CA3E5352516F516BD
:1013E300E43515F515AF36121CA3E5362516F516AB
:1013F300E43515F515AF37121CA3E5372516F51699
:10140300E43515F5157F44121CA374442516F5160F
:10141300E43515F5157F47121CA374472516F516F9
:10142300E43515F515AF14121CA3AF14EF3395E093
:10143300FEEF2516F516EE3515F515E4F517C3E59C
:1014430017940474809480501D744D2517F8E6FF9B
:10145300121CA3744D2517F8E62516F516E4351569
:10146300F515051780D8E515FF121CA3AF16021C4E
:01147300A3D5
:10164B00E4FDF514F515FFE51AFB3395E0FAEB24F1
:10165B00FEFBEA34FFFAEFC39BEA6480F8748098D0
:10166B00501D74512FF582E43403F583E0FB339561
:10167B00E0FAEB2515F515EA3514F5140F80C8E5DE
:10168B001AFB3395E0FA74502BF58274033AF58309
:10169B00E0651560028068E514FF744F2BF58274CA
:1016AB00033AF583E06F60028055900351E0B45329
:1016BB0006A3E0645660028046900353E0653260F7
:1016CB0002803C900354E0653360028032900355F6
:1016DB00E0653460028028900356E0653560028037
:1016EB001E900357E0653660028014900358E06546
:1016FB00376002800A900359E0651A600280007F10
:01170B0001DC
:01170C0022BA
:1018A700E4F53FE54724B9604D24F3601724F16060
:1018B7000C24EE604124FD7044C2068040D20675B8
:1018C70040028039AF3E7E00D3EF9400748094804D
:1018D700402BD3EF940A748094805021EF75F06405
:1018E700A485F04BF54CE4FFFE121C82AD3EE4FFED
:1018F700FE121C3D8007754827C202C20002170D61
:101BC600E4FFEFC3944674809480500F74512FF550
:101BD60082E43403F583E4F00F80E7E4F545F54647
:021BE600F51AEE
:011BE80022DA
:100F4E00E548121A990FA5010FB5030FC5050FD568
:100F5E000710150910250B10550D10650F10751182
:100F6E0010851310951510B51710D51910F51B0F08
:100F7E00E51D0FF51F110523110D2411172611352F
:100F8E002710352810452A10052C10A52E10C53017
:100F9E0010E5320000115C121BC67B017A0279B09B
:100FAE00121B5B75480222121BC67B017A02791452
:100FBE00121B5B75480422121BC67B017A007994C2
:100FCE00121B5B75480622121BC67B017A00797FC5
:100FDE00121B5B75480822121BC67B017A017991A0
:100FEE00121B5B75481E22121BC67B017A0179C04B
:100FFE00121B5B75482022121BC67B017A01791ADF
:10100E00121B5B75482D22121BC67B017A0279A238
:10101E00121B5B75480A22121BC67B017A00794BA4
:10102E00121B5B75480C22121BC67B017A00792BB2
:10103E00121B5B75482922121BC67B017A02799519
:10104E00121B5B75482B22121BC67B017A00790A94
:10105E00121B5B75480E22121BC67B017A0279B0F9
:10106E00121B5B75481022121BC67B017A02791483
:10107E00121B5B75481222121BC67B017A0179A1E5
:10108E00121B5B75481422121BC67B017A00791065
:10109E00121B5B75481622121BC67B017A00796FF4
:1010AE00121B5B75482F22121BC67B017A02798AAE
:1010BE00121B5B75481822121BC67B017A00791E23
:1010CE00121B5B75483122121BC67B017A00790018
:1010DE00121B5B75481A22121BC67B017A00793FE0
:1010EE00121B5B75483322121BC67B017A00790AEC
:1010FE00121B5B75481C22E540641470518043122C
:10110E001BC612147475482522300708300605C216
:10111E000712115D300806C2087F58800730092E6D
:10112E00C2097F5902138130021CC202E547647561
:10113E0060071215617548262212170D7541057547
:0F114E0042DC75482422300005C20012170D2222
:10004600E548121A9900970200D30401270601A871
:100056000803270A037C0C04780E04D21005141238
:10006600056F1405F216069C1807461A07F51C01BB
:10007600FC1E025020085025088F2603D029042490
:100086002B02A52D06472F06F13107AA33000008DB
:10009600EBC3E546941EE54594004021AF1AEF33C5
:1000A60095E0FEC3EF9401EE64809480400F9003C8
:1000B60051E0646160030208EB75480322C3E5461C
:1000C6009464E545940050030208EB804BC3E54673
:1000D600941EE54594004032AF1AEF3395E0FEC317
:1000E600EF9401EE648094804020900351E0642BED
:1000F60060030208EBA3E0646F60030208EBA3E071
:10010600646B60030208EB0201A4C3E5469464E550
:1001160045940050030208EB7541007542640205E0
:10012600D6C3E546941EE5459400405EAF1AEF330C
:1001360095E0FEC3EF9401EE64809480404C9003FA
:100146005BE0642B60030208EBA3E0646F600302CC
:1001560008EBA3E0646B60030208EB121C078F3206
:10016600900361121C0A8F33900363121C0A8F34AA
:10017600900365121C0A8F35900367121C0A8F368E
:10018600900369121C0A8F378068C3E5469464E5BC
:1001960045940050030208EB7541007542647548AA
:1001A6000522C3E546941EE54594004031AF1AEF9B
:1001B6003395E0FEC3EF9401EE64809480401F9077
:1001C6000366E0642B60030208EBA3E0646F600340
:1001D6000208EBA3E0646B60030208EB8068C3E5EA
:1001E600469464E545940050030208EB754100759A
:1001F600426475480722C3E546941EE545940040CF
:1002060031AF1AEF3395E0FEC3EF9401EE648094AC
:1002160080401F900361E0642B60030208EBA3E0BB
:10022600646F60030208EBA3E0646B60030208EBF3
:100236008069C3E5469464E545940050030208EBE3
:1002460075410075426475481D22C3E546941EE556
:100256004594004032AF1AEF3395E0FEC3EF9401A8
:10026600EE648094804020900369E0642B60030272
:1002760008EBA3E0646F60030208EBA3E0646B6025
:10028600030208EB020378C3E5469464E54594004F
:1002960050030208EB75410075426475481F22C37E
:1002A600E546941EE5459400405FAF1AEF3395E0AE
:1002B600FEC3EF9401EE64809480404D900351E0BC
:1002C600642B60030208EBA3E0646F60030208EB93
:1002D600A3E0646B60030208EB900355121C0A8FBF
:1002E60032900357121C0A8F33900359121C0A8F3F
:1002F6003490035B121C0A8F3590035D121C0A8F23
:1003060036121C078F37020698C3E5469464E54506
:10031600940050030208EB75410075426475482C41
:1003260022C3E546941EE54594004032AF1AEF33EA
:1003360095E0FEC3EF9401EE648094804020900324
:100346005FE0642B60030208EBA3E0646F600302C6
:1003560008EBA3E0646B60030208EB0204CEC3E57E
:10036600469464E545940050030208EB7541007518
:10037600426475480922C3E546941EE5459400404B
:1003860031AF1AEF3395E0FEC3EF9401EE6480942B
:1003960080401F900375E0642B60030208EBA3E026
:1003A600646F60030208EBA3E0646B60030208EB72
:1003B6008068C3E5469464E545940050030208EB63
:1003C60075410075426475480B22C3E546941EE5E7
:1003D6004594004031AF1AEF3395E0FEC3EF940128
:1003E600EE64809480401F90035DE0642B600302FE
:1003F60008EBA3E0646F60030208EBA3E0646B60A4
:10040600030208EB8068C3E5469464E54594005012
:10041600030208EB75410075426475482822C3E55E
:1004260046941EE54594004031AF1AEF3395E0FE41
:10043600C3EF9401EE64809480401F90035EE064F5
:100446002B60030208EBA3E0646F60030208EBA3D2
:10045600E0646B60030208EB806EC3E5469464E5D6
:1004660045940050030208EB7541007542647548D7
:100476002A22C3E546941EE54594004037AF1AEF9D
:100486003395E0FEC3EF9401EE648094804025909E
:100496000357E0642B60030208EBA3E0646F60037C
:1004A6000208EBA3E0646B60030208EBF5417542BA
:1004B6009602056BC3E5469464E545940050030235
:1004C60008EB75410075426475480D22C3E54694F4
:1004D6001EE54594004021AF1AEF3395E0FEC3EFC9
:1004E6009401EE64809480400F900351E064616053
:1004F600030208EB75481122C3E5469464E545946A
:100506000050030208EB7541007542648057C3E54D
:1005160046941EE54594004038AF1AEF3395E0FE49
:10052600C3EF9401EE648094804026900351E0640A
:100536002B60030208EBA3E0646F60030208EBA3E1
:10054600E0646B60030208EB7541027542580205D0
:10055600EEC3E5469464E545940050030208EB7546
:10056600410075426475480F22C3E546941EE54571
:1005760094004060AF1AEF3395E0FEC3EF9401EEAE
:1005860064809480404E90035EE0B44412A3E0B4CD
:10059600690DA3E0B4730875410075420A8049905D
:1005A600035AE0B42B0DA3E0B46F08A3E0B46B03C9
:1005B600020643900351E0647360030208EBA3E074
:1005C600646F60030208EBA3E0646B60030208EB50
:1005D60075480122C3E5469464E54594005003023C
:1005E60008EB75410075426475481322C3E54694CD
:1005F6001EE54594004032AF1AEF3395E0FEC3EF97
:100606009401EE64809480402090035FE0642B6048
:10061600030208EBA3E0646F60030208EBA3E06447
:100626006B60030208EB0206EDC3E5469464E545FC
:10063600940050030208EB75410075426475481535
:1006460022C3E546941EE54594004032AF1AEF33C7
:1006560095E0FEC3EF9401EE648094804020900301
:1006660051E0642B60030208EBA3E0646F600302B1
:1006760008EBA3E0646B60030208EB020742C3E5E4
:10068600469464E545940050030208EB75410375F2
:1006960042E875482E22C3E546941EE5459400407F
:1006A60032AF1AEF3395E0FEC3EF9401EE64809407
:1006B60080402090035FE0643D60030208EBA3E006
:1006C600646F60030208EBA3E0646E60030208EB4C
:1006D6000207A6C3E5469464E54594005003020864
:1006E600EB75410075426475481722C3E546941EB2
:1006F600E54594004032AF1AEF3395E0FEC3EF9420
:1007060001EE648094804020900354E0643D6003D1
:100716000208EBA3E0646F60030208EBA3E0646EDB
:1007260060030208EB0207F1C3E5469464E54594CD
:100736000050030208EB7541037542E87548302204
:10074600C3E546941EE54594004041AF1AEF339544
:10075600E0FEC3EF9401EE64809480402F90035E28
:10076600E0643D60030208EBA3E0646F60030208E7
:10077600EBA3E0646E60030208EB75481BFF7E0284
:10078600121C827D637F007E02021C3DC3E54694F7
:1007960064E545940050030208EB75410075426418
:1007A60075481922C3E546941EE54594004028AFD6
:1007B6001AEF3395E0FEC3EF9401EE648094804017
:1007C60016900354E0643D60030208EBA3E0646FF7
:1007D60060030208EB8057C3E5469464E545940040
:1007E60050030208EB7541037542E875483222C38F
:1007F600E546941EE54594004038AF1AEF3395E080
:10080600FEC3EF9401EE648094804026900357E087
:10081600642B60030208EBA3E0646F60030208EB3D
:10082600A3E0646B60030208EBF5417542967548D8
:100836002322C3E5469464E545940050030208EB81
:1008460075410075426475481B22C3E546941EE552
:100856004594004025AF1AEF3395E0FEC3EF9401AF
:10086600EE64809480401312164BEF601890035A82
:10087600E0B4480475482622800BC3E546942CE56F
:10088600459401406075482422C3E546941EE5451B
:1008960094004043AF1AEF3395E0FEC3EF9401EEA8
:1008A60064809480403112164BEF6036900359E015
:1008B600FF3395E0FEEF640E4E7027A3E0F547A3E5
:1008C600E0F53EA3E0F538E53E75F00AA485F0565E
:1008D600F5571218A7800BC3E5469464E5459400C6
:0608E6004003121BC622B4
:10190700EFFD7C00C3943074809480400FD3ED9436
:101917003974809480500574D02FFF22C3ED944111
:10192700EC648094804010D3ED9446EC64809480FE
:10193700500574C92FFF22C3ED9461EC6480948035
:101947004010D3ED9466EC64809480500574A92F01
:05195700FF227FFF22CA
:081C070090035FE0FFA3E0FD84
:021C0F00AE0520
:101C1100121907EFC454F0FBAF06121907EF2BFF9F
:011C210022A0
:101AFB0012000EE4FFFE121C22EFFD7C00D39400BB
:101B0B0074809480400AD3ED940A748094804002D0
:101B1B007F01EF75F064A485F04BF54C7F007E02DE
:051B2B00121C228F5284
:011B30002292
:0D000E00E4F5C7F5C5F5C675C380F5C4223D
:101C220075C78375C5018FC4EEFF8FC375C65A751C
:0A1C3200C6A500ADC212000EAF05FA
:011C3C002285
:101C3D0075C78375C5028FC4EEFF8FC38DC275C680
:081C4D005A75C6A50002000E45
:101C820075C78375C5038FC4EEFF8FC375C65A75BA
:061C9200C6A50002000ED1
:1017C600020003E493A3F8E493A34003F68001F236
:1017D60008DFF48029E493A3F85407240CC8C33324
:1017E600C4540F4420C8834004F456800146F6DFF3
:1017F600E4800B0102040810204080900C22E47E55
:10180600019360BCA3FF543F30E509541FFEE493E7
:10181600A360010ECF54C025E060A840B8E493A3AE
:10182600FAE493A3F8E493A3C8C582C8CAC583CAD9
:10183600F0A3C8C582C8CAC583CADFE9DEE780BE91
:010F4D0000A3
:101A8000BB010689828A83E0225002E722BBFE0264
:091A9000E32289828A83E4932297
:101A9900D083D082F8E4937012740193700DA3A3DC
:101AA90093F8740193F5828883E4737402936860F0
:061AB900EFA3A3A380DFF0
:00000001FF
