:03000000020E3BB2
:0C0E3B00787FE4F6D8FD75814E020E822F
:08000300120F5012115680FB90
:0B000E00E4F58A758CDCD28CD2A922AC
:03000B0002126E70
:03126E00D2033276
:10109A00C2030542E542700205410544E544700277
:1010AA000543E53A45396008E53A153A70021539BB
:1010BA00E540453F6008E54015407002153F0511BF
:1010CA00C3E511940A748094804005E4F511D200B6
:0110DA0022F3
:100FFE00C200120DA13004080548E54870020547ED
:10100E00E54E454D6008E54E154E7002154DD2CD9C
:10101E000512C3E5129405748094804008E4F5121D
:10102E00A201B392010510C3E510940A7480948056
:10103E00400FE4F510A202B39202E5467003754626
:01104E0001A0
:01104F00227E
:10120A00E4F591F59275B04375B14075B24090FE20
:0E121A0013E054BFF075C810E4F5C9F5CA2200
:0712670075C10443C1202200
:100F5000C2AF12120A12126712000E1200261212EB
:100F6000401211A5753903753AE8E4F53E75221F64
:100F700075231C75241F75251E75261F75271E7564
:100F8000281F75291F752A1E752B1F752C1E752D80
:100F90001FF538752F01753B01F53CF54BF549F50B
:090FA0002E1211EBD2CDD2AF22CA
:0900190030B603C29722D29722EF
:1011560043C11012001930030312109A3000031213
:101166000FFEE53A45397003120EC712058FE540AA
:0A117600453F70031208EC0200462A
:1011A500E4FFEFC3944674809480500F744B2FF581
:1011B50082E43401F583E4F00F80E7E4F517F541A7
:0211C500F542F1
:0111C7002205
:100EC700E53E24FE602724FE602F24FE603724FEC3
:100ED700605124FE603B14606224FE6052240D7052
:100EE700671211A57F30121257753E01221211A504
:100EF7007F30121257753E03221211A57F47121237
:100F070057753E05221211A57F53121257753E07DA
:100F170022E546641E7002800AE546641F70297543
:100F27003E0B221211A57F33121257753E0922126A
:100F370011A57F34121257753E0E221211A5C20554
:090F4700AF45121257753E0C2251
:10058F00E53E24FD606824FE700302063F24FE70E2
:10059F000302067B24FE70030206B824FD700302DB
:1005AF00072724FE70030206F1240D600302076182
:1005BF00C3E5429405E54194004022AF17EF339510
:1005CF00E0FEC3EF9401EE64809480401090014BE5
:1005DF00E064316003020761753E02803CC3E5426F
:1005EF009464E541940050030207610206B4C3E529
:1005FF00429405E54194004027AF17EF3395E0FE95
:10060F00C3EF9401EE64809480401590014BE06439
:10061F00316003020761753E04753901753AF422A2
:10062F00C3E5429464E5419400500302076180756D
:10063F00C3E5429405E54194004021AF17EF339590
:10064F00E0FEC3EF9401EE64809480400F90014B65
:10065F00E064316003020761753E0622C3E54294F0
:10066F00ACE541940D50030207618039C3E5429414
:10067F0005E54194004020AF17EF3395E0FEC3EF3F
:10068F009401EE64809480400E90014BE0643160E1
:10069F000302076102074CC3E5429496E5419400BB
:1006AF005003020761E4F53E22C3E5429405E5419C
:1006BF0094004021AF17EF3395E0FEC3EF9401EEA6
:1006CF0064809480400F90014BE064316003020717
:1006DF0061753E0D22C3E5429464E541940040727A
:1006EF00805BC3E5429405E5419400401EAF17EFD0
:1006FF003395E0FEC3EF941FEE64809480400C7539
:10070F003E0A753900753A54D20622C3E542946405
:10071F00E5419400403C8025C3E5429405E54194B2
:10072F0000401EAF17EF3395E0FEC3EF9401EE6468
:10073F00809480400CD205753900753A0A753E0ACF
:10074F0022C3E54294ACE541940D4006753E0A750F
:03075F00461E2211
:100DA100E52EC39409748094805003052E22E4F546
:100DB1002EE549C3943B748094805003054922E495
:100DC100F549E54BC3943B748094805003054B2255
:100DD100E4F54BE53CC39417748094805003053CC3
:100DE10022E4F53CE52FFD7C0064027026E53854D1
:100DF10003700EE53875F06484E5F060047F1D80B2
:100E0100027F1CE53BC39F5003053B22753B0175E7
:100E11002F03227421252FF8E6FFE53BC39F5003E2
:100E2100053B22753B01C3ED940CEC64809480502A
:090E310003052F22752F0105387D
:010E3A002295
:0300230002111AAD
:10111A00C0E0C083C082C0D075D008309904C2999B
:10112A00C20830981EC298AF170517EF3395E0FE34
:10113A00744B2FF58274013EF583E599F0754100F1
:0C114A00754200D0D0D082D083D0E032BB
:10002600759850758BD0758DFF438E40538EFED2DA
:0B0036008ED2ACE4F518F517C20822CA
:081257002008FDD2088F992246
:0300430002105058
:10105000C0E0C083C082C0D075D000C006C007E524
:101060009A30E105539AFDC209E59A30E01F539A80
:10107000FEAF190519EF3395E0FE74912FF58274D8
:10108000013EF583E59BF0754300754400D007D021
:0A10900006D0D0D082D083D0E03229
:10124000759A1075D7E875D6FF438E14E4F51AF534
:0712500019C20943AF01229E
:08125F002009FDD2098F9B223A
:101180008B148A158916AB14AA15A9161210DB60E8
:10119000130516E5167002051514F91210DBFF127F
:0511A000125F80E22255
:100762004401472B2B2B00420081610042011161A1
:100772000048001E2B6F6B0D0A0D0A004A004B61E8
:10078200742B77736D61630D005F00F241542B5738
:10079200534D41430A0D2B6F6B3D4135413441337B
:1007A2004132413141300D0A0D0A004E0139617466
:1007B2002B776D6F64653D7374610D0056006B415C
:1007C200542B574D4F44453D7374610A0D2B6F6B8B
:1007D2000D0A0D0A006025002661742B6E65747087
:1007E2003D7463702C636C69656E742C38302C32E6
:1007F20032332E3133342E332E3132390D00602D07
:1008020000BC41542B4E4554503D7463702C636CB4
:1008120069656E742C38302C3232332E3133342EDB
:10082200332E3132390A0D2B6F6B0D0A0D0A004936
:1008320000E961742B77736C6B0D005B01134154FB
:100842002B57534C4B0A0D2B6F6B3D535349442886
:100852004D4143290D0A0D0A004E001061742B749C
:1008620063706469733D6F6E0D005600A641542B90
:100872005443504449533D6F6E0A0D2B6F6B0D0A62
:100882000D0A004B012E61742B7463706469730D41
:100892000056005541542B5443504449530A0D2BE2
:1008A2006F6B3D6F6E0D0A0D0A004A000061742BDA
:1008B2007463706C6B0D0055008341542B5443508C
:1008C2004C4B0A0D2B6F6B3D6F6E0D0A0D0A0046E5
:1008D200000A61742B7A0D004E009841542B5A0A7B
:0908E2000D2B6F6B0D0A0D0A00CD
:1011EB007531B17532B27533B37534B47535B575B8
:0F11FB0036B61211C8E4F546753F02754058220A
:100CF300E4F514F5157F4312125F74432515F515BA
:100D0300E43514F5147F4C12125F744C2515F51558
:100D1300E43514F514AF3112125FE5312515F515DD
:100D2300E43514F514AF3212125FE5322515F515CB
:100D3300E43514F514AF3312125FE5332515F515B9
:100D4300E43514F514AF3412125FE5342515F515A7
:100D5300E43514F514AF3512125FE5352515F51595
:100D6300E43514F514AF3612125FE5362515F51583
:100D7300E43514F5147F0C12125F740C2515F51568
:100D8300E43514F5147F4812125F74482515F515E0
:0E0D9300E43514F514FF12125FAF1502125F63
:100A2600E4F514F5157F4312125F74432515F51589
:100A3600E43514F5147F4C12125F744C2515F51528
:100A4600E43514F514AF3112125FE5312515F515AD
:100A5600E43514F514AF3212125FE5322515F5159B
:100A6600E43514F514AF3312125FE5332515F51589
:100A7600E43514F514AF3412125FE5342515F51577
:100A8600E43514F514AF3512125FE5352515F51565
:100A9600E43514F514AF3612125FE5362515F51553
:100AA600E43514F5147F4812125F74482515F515C0
:100AB600E43514F5147F3412125F74342515F515D8
:100AC600E43514F514AF3C12125FE53C2515F51517
:100AD600E43514F514AF4B12125FE54B2515F515E9
:100AE600E43514F514AF4912125FE5492515F515DD
:100AF600E43514F514AF2E12125FE52E2515F51503
:100B0600E43514F514E4F516C3E5169438748094A8
:100B160080502F744B2516F582E43401F583E0FFEF
:100B260012125F744B2516F582E43401F583E0FF5B
:100B36003395E0FEEF2515F515EE3514F51405167B
:0D0B460080C6E514FF12125FAF1502125FAA
:100B5300E4F514F5157F4312125F74432515F5155B
:100B6300E43514F5147F4C12125F744C2515F515FA
:100B7300E43514F514AF3112125FE5312515F5157F
:100B8300E43514F514AF3212125FE5322515F5156D
:100B9300E43514F514AF3312125FE5332515F5155B
:100BA300E43514F514AF3412125FE5342515F51549
:100BB300E43514F514AF3512125FE5352515F51537
:100BC300E43514F514AF3612125FE5362515F51525
:100BD300E43514F514E537240BF516FF12125FE51F
:100BE300162515F515E43514F514E4F516E516C3C5
:100BF3009537502F744B2516F582E43401F583E0C5
:100C0300FF12125F744B2516F582E43401F583E07D
:100C1300FF3395E0FEEF2515F515EE3514F51405B4
:0E0C23001680CAE514FF12125FAF1502125FB1
:100C3100E4FDF514F515FFE519FB3395E0FAEB2416
:100C4100FEFBEA34FFFAEFC39BEA6480F8748098F4
:100C5100501D74912FF582E43401F583E0FB339547
:100C6100E0FAEB2515F515EA3514F5140F80C8E502
:100C710019FB3395E0FA74902BF58274013AF583F0
:100C8100E0651560028068E514FF748F2BF58274AE
:100C9100013AF583E06F60028055900191E0B45311
:100CA10006A3E0645660028046900193E0653160DE
:100CB10002803C900194E06532600280329001959F
:100CC100E0653360028028900196E065346002801F
:100CD1001E900197E0653560028014900198E065EF
:100CE100366002800A900199E06519600280007FF8
:010CF1000101
:010CF20022DF
:1011C800E4FFEFC3944674809480500F74912FF518
:1011D80082E43401F583E4F00F80E7E4F543F54455
:0211E800F519F7
:0111EA0022E2
:1008EC00E5461210F409280109380309480509588E
:1008FC000709680909780B09880D09980F09A811CF
:10090C0009B81309C81509D81709E81909F81B0AF9
:10091C00021C0A0C1E0A141F00000A251211C87BA7
:10092C00017A017947121180754602221211C87B97
:10093C00017A017911121180754604221211C87BBB
:10094C00017A00794B121180754606221211C87B70
:10095C00017A017939121180754608221211C87B6F
:10096C00017A00792612118075460A221211C87B71
:10097C00017A00790A12118075460C221211C87B7B
:10098C00017A01794712118075460E221211C87B2B
:10099C00017A017911121180754610221211C87B4F
:1009AC00017A0079E9121180754612221211C87B66
:1009BC00017A007910121180754614221211C87B2D
:1009CC00017A01792E121180754616221211C87BFC
:1009DC00017A007900121180754618221211C87B19
:1009EC00017A00790A12118075461A22E53E640AD2
:1009FC00702775461C221211C8120CF375461D2265
:100A0C00300616C206020A2630050EE54E454D701C
:0A0A1C0008C205120B5375461E2296
:10004600E5461210F4007C0200B804010D06019189
:100056000801E50A02390C02930E02D5100330128C
:10006600039D1403F11604451804991A04F41D059A
:10007600331E0000058EC3E544941EE543940040FC
:1000860021AF19EF3395E0FEC3EF9401EE6480943F
:1000960080400F900191E06461600302058E754611
:1000A6000322C3E5449464E5439400500302058E9D
:1000B600804BC3E544941EE54394004032AF19EFEC
:1000C6003395E0FEC3EF9401EE6480948040209067
:1000D6000191E0642B600302058EA3E0646F600368
:1000E60002058EA3E0646B600302058E02018DC3D8
:1000F600E5449464E5439400500302058E753F0081
:1001060075406475460122C3E544941EE543940098
:100116004061AF19EF3395E0FEC3EF9401EE6480C2
:100126009480404F90019BE0642B600302058EA3F0
:10013600E0646F600302058EA3E0646B6003020552
:100146008E90019F1212288F319001A11212288FD2
:10015600329001A31212288F339001A51212288F14
:10016600349001A71212288F359001A91212288FF8
:10017600368068C3E5449464E54394005003020561
:100186008E753F0075406475460522C3E544941E8E
:10019600E54394004031AF19EF3395E0FEC3EF9489
:1001A60001EE64809480401F90019FE0642B600301
:1001B60002058EA3E0646F600302058EA3E0646B04
:1001C600600302058E8068C3E5449464E5439400A9
:1001D600500302058E753F0075406475460722C3BD
:1001E600E544941EE54394004031AF19EF3395E0A2
:1001F600FEC3EF9401EE64809480401F9001B6E048
:10020600642B600302058EA3E0646F600302058E13
:10021600A3E0646B600302058E806EC3E5449464BC
:10022600E5439400500302058E753F0075406475E2
:10023600460922C3E544941EE54394004037AF19AE
:10024600EF3395E0FEC3EF9401EE64809480402581
:10025600900197E0642B600302058EA3E0646F6053
:100266000302058EA3E0646B600302058EF53F75FD
:10027600409602032CC3E5449464E543940050037E
:1002860002058E753F0075406475460B22C3E54432
:10029600941EE54394004021AF19EF3395E0FEC369
:1002A600EF9401EE64809480400F900191E06461C8
:1002B600600302058E75460F22C3E5449464E54348
:1002C6009400500302058E753F007540648057C345
:1002D600E544941EE54394004038AF19EF3395E0AA
:1002E600FEC3EF9401EE648094804026900191E075
:1002F600642B600302058EA3E0646F600302058E23
:10030600A3E0646B600302058E753F0275405802D8
:100316000399C3E5449464E5439400500302058EB3
:10032600753F0075406475460D22C3E544941EE58D
:10033600439400404AAF19EF3395E0FEC3EF9401B2
:10034600EE64809480403890019EE0B44412A3E0AD
:10035600B4690DA3E0B47308753F0075400A803395
:1003660090019AE0642B600302058EA3E0646F603F
:100376000302058EA3E0646B600302058E8068C3EA
:10038600E5449464E5439400500302058E753F00EE
:1003960075406475461122C3E544941EE5439400F6
:1003A6004031AF19EF3395E0FEC3EF9401EE648060
:1003B6009480401F90019FE0642B600302058EA38A
:1003C600E0646F600302058EA3E0646B60030205C0
:1003D6008E8068C3E5449464E543940050030205A7
:1003E6008E753F0075406475461322C3E544941E1E
:1003F600E54394004031AF19EF3395E0FEC3EF9427
:1004060001EE64809480401F90019FE0643D60038C
:1004160002058EA3E0646F600302058EA3E0646E9E
:10042600600302058E8068C3E5449464E543940046
:10043600500302058E753F0075406475461522C34C
:10044600E544941EE54394004031AF19EF3395E03F
:10045600FEC3EF9401EE64809480401F90019EE0FD
:10046600643D600302058EA3E0646F600302058E9F
:10047600A3E0646E600302058E806FC3E544946456
:10048600E5439400500302058E753F007540647580
:10049600461722C3E544941EE54394004038AF193D
:1004A600EF3395E0FEC3EF9401EE6480948040261E
:1004B600900197E0642B600302058EA3E0646F60F1
:1004C6000302058EA3E0646B600302058EF53F759B
:1004D600409675461B22C3E5449464E54394005058
:1004E6000302058E753F0075406475461922C3E503
:1004F60044941EE54394004025AF19EF3395E0FE82
:10050600C3EF9401EE648094804013120C31EF60C7
:100516001890019AE0B4480475461E22800BC3E584
:1005260044942CE5439401405F75461C22C3E54480
:10053600941EE54394004042AF19EF3395E0FEC3A5
:10054600EF9401EE648094804030120C31EF6038F5
:10055600900199E0FF3395E0FEEF640E4E7029A3FB
:10056600E0F545A3E0F53DA3E0F537E53D75F00A76
:10057600A485F04DF54E75461F22C3E5449464E507
:0905860043940040031211C82245
:100FA900EFFD7C00C3943074809480400FD3ED949E
:100FB9003974809480500574D02FFF22C3ED944179
:100FC900EC648094804010D3ED9446EC6480948066
:100FD900500574C92FFF22C3ED9461EC648094809D
:100FE9004010D3ED9466EC64809480500574A92F69
:050FF900FF227FFF2232
:05122800E0FFA3E0FD62
:02122D00AE050C
:10122F00120FA9EFC454F0FBAF06120FA9EF2BFF5B
:01123F00228C
:100E4700020003E493A3F8E493A34003F68001F2BE
:100E570008DFF48029E493A3F85407240CC8C333AC
:100E6700C4540F4420C8834004F456800146F6DF7B
:100E7700E4800B0102040810204080900762E47EA2
:100E8700019360BCA3FF543F30E509541FFEE49370
:100E9700A360010ECF54C025E060A840B8E493A337
:100EA700FAE493A3F8E493A3C8C582C8CAC583CA62
:100EB700F0A3C8C582C8CAC583CADFE9DEE780BE1A
:0108EB00000C
:1010DB00BB010689828A83E0225002E722BBFE0213
:0910EB00E32289828A83E4932246
:1010F400D083D082F8E4937012740193700DA3A38B
:1011040093F8740193F5828883E47374029368609E
:06111400EFA3A3A380DF9E
:00000001FF
